{
  "_format": "hh-sol-artifact-1",
  "contractName": "LensHub",
  "sourceName": "contracts/lensContracts/core/LensHub.sol",
  "abi": [
    {
      "inputs": [
        {
          "internalType": "address",
          "name": "followNFTImpl",
          "type": "address"
        },
        {
          "internalType": "address",
          "name": "collectNFTImpl",
          "type": "address"
        }
      ],
      "stateMutability": "nonpayable",
      "type": "constructor"
    },
    {
      "inputs": [],
      "name": "CallerNotCollectNFT",
      "type": "error"
    },
    {
      "inputs": [],
      "name": "CallerNotFollowNFT",
      "type": "error"
    },
    {
      "inputs": [],
      "name": "CannotInitImplementation",
      "type": "error"
    },
    {
      "inputs": [],
      "name": "Initialized",
      "type": "error"
    },
    {
      "inputs": [],
      "name": "NotGovernance",
      "type": "error"
    },
    {
      "inputs": [],
      "name": "NotGovernanceOrEmergencyAdmin",
      "type": "error"
    },
    {
      "inputs": [],
      "name": "NotOwnerOrApproved",
      "type": "error"
    },
    {
      "inputs": [],
      "name": "NotProfileOwner",
      "type": "error"
    },
    {
      "inputs": [],
      "name": "NotProfileOwnerOrDispatcher",
      "type": "error"
    },
    {
      "inputs": [],
      "name": "Paused",
      "type": "error"
    },
    {
      "inputs": [],
      "name": "ProfileCreatorNotWhitelisted",
      "type": "error"
    },
    {
      "inputs": [],
      "name": "ProfileImageURILengthInvalid",
      "type": "error"
    },
    {
      "inputs": [],
      "name": "PublicationDoesNotExist",
      "type": "error"
    },
    {
      "inputs": [],
      "name": "PublishingPaused",
      "type": "error"
    },
    {
      "inputs": [],
      "name": "SignatureExpired",
      "type": "error"
    },
    {
      "inputs": [],
      "name": "SignatureInvalid",
      "type": "error"
    },
    {
      "inputs": [],
      "name": "ZeroSpender",
      "type": "error"
    },
    {
      "anonymous": false,
      "inputs": [
        {
          "indexed": true,
          "internalType": "address",
          "name": "owner",
          "type": "address"
        },
        {
          "indexed": true,
          "internalType": "address",
          "name": "approved",
          "type": "address"
        },
        {
          "indexed": true,
          "internalType": "uint256",
          "name": "tokenId",
          "type": "uint256"
        }
      ],
      "name": "Approval",
      "type": "event"
    },
    {
      "anonymous": false,
      "inputs": [
        {
          "indexed": true,
          "internalType": "address",
          "name": "owner",
          "type": "address"
        },
        {
          "indexed": true,
          "internalType": "address",
          "name": "operator",
          "type": "address"
        },
        {
          "indexed": false,
          "internalType": "bool",
          "name": "approved",
          "type": "bool"
        }
      ],
      "name": "ApprovalForAll",
      "type": "event"
    },
    {
      "anonymous": false,
      "inputs": [
        {
          "indexed": true,
          "internalType": "address",
          "name": "from",
          "type": "address"
        },
        {
          "indexed": true,
          "internalType": "address",
          "name": "to",
          "type": "address"
        },
        {
          "indexed": true,
          "internalType": "uint256",
          "name": "tokenId",
          "type": "uint256"
        }
      ],
      "name": "Transfer",
      "type": "event"
    },
    {
      "inputs": [
        {
          "internalType": "address",
          "name": "to",
          "type": "address"
        },
        {
          "internalType": "uint256",
          "name": "tokenId",
          "type": "uint256"
        }
      ],
      "name": "approve",
      "outputs": [],
      "stateMutability": "nonpayable",
      "type": "function"
    },
    {
      "inputs": [
        {
          "internalType": "address",
          "name": "owner",
          "type": "address"
        }
      ],
      "name": "balanceOf",
      "outputs": [
        {
          "internalType": "uint256",
          "name": "",
          "type": "uint256"
        }
      ],
      "stateMutability": "view",
      "type": "function"
    },
    {
      "inputs": [
        {
          "internalType": "uint256",
          "name": "tokenId",
          "type": "uint256"
        }
      ],
      "name": "burn",
      "outputs": [],
      "stateMutability": "nonpayable",
      "type": "function"
    },
    {
      "inputs": [
        {
          "internalType": "uint256",
          "name": "tokenId",
          "type": "uint256"
        },
        {
          "components": [
            {
              "internalType": "uint8",
              "name": "v",
              "type": "uint8"
            },
            {
              "internalType": "bytes32",
              "name": "r",
              "type": "bytes32"
            },
            {
              "internalType": "bytes32",
              "name": "s",
              "type": "bytes32"
            },
            {
              "internalType": "uint256",
              "name": "deadline",
              "type": "uint256"
            }
          ],
          "internalType": "struct DataTypes.EIP712Signature",
          "name": "sig",
          "type": "tuple"
        }
      ],
      "name": "burnWithSig",
      "outputs": [],
      "stateMutability": "nonpayable",
      "type": "function"
    },
    {
      "inputs": [
        {
          "internalType": "uint256",
          "name": "profileId",
          "type": "uint256"
        },
        {
          "internalType": "uint256",
          "name": "pubId",
          "type": "uint256"
        },
        {
          "internalType": "bytes",
          "name": "data",
          "type": "bytes"
        }
      ],
      "name": "collect",
      "outputs": [],
      "stateMutability": "nonpayable",
      "type": "function"
    },
    {
      "inputs": [
        {
          "components": [
            {
              "internalType": "address",
              "name": "collector",
              "type": "address"
            },
            {
              "internalType": "uint256",
              "name": "profileId",
              "type": "uint256"
            },
            {
              "internalType": "uint256",
              "name": "pubId",
              "type": "uint256"
            },
            {
              "internalType": "bytes",
              "name": "data",
              "type": "bytes"
            },
            {
              "components": [
                {
                  "internalType": "uint8",
                  "name": "v",
                  "type": "uint8"
                },
                {
                  "internalType": "bytes32",
                  "name": "r",
                  "type": "bytes32"
                },
                {
                  "internalType": "bytes32",
                  "name": "s",
                  "type": "bytes32"
                },
                {
                  "internalType": "uint256",
                  "name": "deadline",
                  "type": "uint256"
                }
              ],
              "internalType": "struct DataTypes.EIP712Signature",
              "name": "sig",
              "type": "tuple"
            }
          ],
          "internalType": "struct DataTypes.CollectWithSigData",
          "name": "vars",
          "type": "tuple"
        }
      ],
      "name": "collectWithSig",
      "outputs": [],
      "stateMutability": "nonpayable",
      "type": "function"
    },
    {
      "inputs": [
        {
          "components": [
            {
              "internalType": "uint256",
              "name": "profileId",
              "type": "uint256"
            },
            {
              "internalType": "string",
              "name": "contentURI",
              "type": "string"
            },
            {
              "internalType": "uint256",
              "name": "profileIdPointed",
              "type": "uint256"
            },
            {
              "internalType": "uint256",
              "name": "pubIdPointed",
              "type": "uint256"
            },
            {
              "internalType": "address",
              "name": "collectModule",
              "type": "address"
            },
            {
              "internalType": "bytes",
              "name": "collectModuleData",
              "type": "bytes"
            },
            {
              "internalType": "address",
              "name": "referenceModule",
              "type": "address"
            },
            {
              "internalType": "bytes",
              "name": "referenceModuleData",
              "type": "bytes"
            }
          ],
          "internalType": "struct DataTypes.CommentData",
          "name": "vars",
          "type": "tuple"
        }
      ],
      "name": "comment",
      "outputs": [],
      "stateMutability": "nonpayable",
      "type": "function"
    },
    {
      "inputs": [
        {
          "components": [
            {
              "internalType": "uint256",
              "name": "profileId",
              "type": "uint256"
            },
            {
              "internalType": "string",
              "name": "contentURI",
              "type": "string"
            },
            {
              "internalType": "uint256",
              "name": "profileIdPointed",
              "type": "uint256"
            },
            {
              "internalType": "uint256",
              "name": "pubIdPointed",
              "type": "uint256"
            },
            {
              "internalType": "address",
              "name": "collectModule",
              "type": "address"
            },
            {
              "internalType": "bytes",
              "name": "collectModuleData",
              "type": "bytes"
            },
            {
              "internalType": "address",
              "name": "referenceModule",
              "type": "address"
            },
            {
              "internalType": "bytes",
              "name": "referenceModuleData",
              "type": "bytes"
            },
            {
              "components": [
                {
                  "internalType": "uint8",
                  "name": "v",
                  "type": "uint8"
                },
                {
                  "internalType": "bytes32",
                  "name": "r",
                  "type": "bytes32"
                },
                {
                  "internalType": "bytes32",
                  "name": "s",
                  "type": "bytes32"
                },
                {
                  "internalType": "uint256",
                  "name": "deadline",
                  "type": "uint256"
                }
              ],
              "internalType": "struct DataTypes.EIP712Signature",
              "name": "sig",
              "type": "tuple"
            }
          ],
          "internalType": "struct DataTypes.CommentWithSigData",
          "name": "vars",
          "type": "tuple"
        }
      ],
      "name": "commentWithSig",
      "outputs": [],
      "stateMutability": "nonpayable",
      "type": "function"
    },
    {
      "inputs": [
        {
          "components": [
            {
              "internalType": "address",
              "name": "to",
              "type": "address"
            },
            {
              "internalType": "string",
              "name": "handle",
              "type": "string"
            },
            {
              "internalType": "string",
              "name": "imageURI",
              "type": "string"
            },
            {
              "internalType": "address",
              "name": "followModule",
              "type": "address"
            },
            {
              "internalType": "bytes",
              "name": "followModuleData",
              "type": "bytes"
            },
            {
              "internalType": "string",
              "name": "followNFTURI",
              "type": "string"
            }
          ],
          "internalType": "struct DataTypes.CreateProfileData",
          "name": "vars",
          "type": "tuple"
        }
      ],
      "name": "createProfile",
      "outputs": [],
      "stateMutability": "nonpayable",
      "type": "function"
    },
    {
      "inputs": [
        {
          "internalType": "address",
          "name": "wallet",
          "type": "address"
        }
      ],
      "name": "defaultProfile",
      "outputs": [
        {
          "internalType": "uint256",
          "name": "",
          "type": "uint256"
        }
      ],
      "stateMutability": "view",
      "type": "function"
    },
    {
      "inputs": [
        {
          "internalType": "uint256",
          "name": "profileId",
          "type": "uint256"
        },
        {
          "internalType": "uint256",
          "name": "pubId",
          "type": "uint256"
        },
        {
          "internalType": "uint256",
          "name": "collectNFTId",
          "type": "uint256"
        },
        {
          "internalType": "address",
          "name": "from",
          "type": "address"
        },
        {
          "internalType": "address",
          "name": "to",
          "type": "address"
        }
      ],
      "name": "emitCollectNFTTransferEvent",
      "outputs": [],
      "stateMutability": "nonpayable",
      "type": "function"
    },
    {
      "inputs": [
        {
          "internalType": "uint256",
          "name": "profileId",
          "type": "uint256"
        },
        {
          "internalType": "uint256",
          "name": "followNFTId",
          "type": "uint256"
        },
        {
          "internalType": "address",
          "name": "from",
          "type": "address"
        },
        {
          "internalType": "address",
          "name": "to",
          "type": "address"
        }
      ],
      "name": "emitFollowNFTTransferEvent",
      "outputs": [],
      "stateMutability": "nonpayable",
      "type": "function"
    },
    {
      "inputs": [
        {
          "internalType": "uint256",
          "name": "tokenId",
          "type": "uint256"
        }
      ],
      "name": "exists",
      "outputs": [
        {
          "internalType": "bool",
          "name": "",
          "type": "bool"
        }
      ],
      "stateMutability": "view",
      "type": "function"
    },
    {
      "inputs": [
        {
          "internalType": "uint256[]",
          "name": "profileIds",
          "type": "uint256[]"
        },
        {
          "internalType": "bytes[]",
          "name": "datas",
          "type": "bytes[]"
        }
      ],
      "name": "follow",
      "outputs": [],
      "stateMutability": "nonpayable",
      "type": "function"
    },
    {
      "inputs": [
        {
          "components": [
            {
              "internalType": "address",
              "name": "follower",
              "type": "address"
            },
            {
              "internalType": "uint256[]",
              "name": "profileIds",
              "type": "uint256[]"
            },
            {
              "internalType": "bytes[]",
              "name": "datas",
              "type": "bytes[]"
            },
            {
              "components": [
                {
                  "internalType": "uint8",
                  "name": "v",
                  "type": "uint8"
                },
                {
                  "internalType": "bytes32",
                  "name": "r",
                  "type": "bytes32"
                },
                {
                  "internalType": "bytes32",
                  "name": "s",
                  "type": "bytes32"
                },
                {
                  "internalType": "uint256",
                  "name": "deadline",
                  "type": "uint256"
                }
              ],
              "internalType": "struct DataTypes.EIP712Signature",
              "name": "sig",
              "type": "tuple"
            }
          ],
          "internalType": "struct DataTypes.FollowWithSigData",
          "name": "vars",
          "type": "tuple"
        }
      ],
      "name": "followWithSig",
      "outputs": [],
      "stateMutability": "nonpayable",
      "type": "function"
    },
    {
      "inputs": [
        {
          "internalType": "uint256",
          "name": "tokenId",
          "type": "uint256"
        }
      ],
      "name": "getApproved",
      "outputs": [
        {
          "internalType": "address",
          "name": "",
          "type": "address"
        }
      ],
      "stateMutability": "view",
      "type": "function"
    },
    {
      "inputs": [
        {
          "internalType": "uint256",
          "name": "profileId",
          "type": "uint256"
        },
        {
          "internalType": "uint256",
          "name": "pubId",
          "type": "uint256"
        }
      ],
      "name": "getCollectModule",
      "outputs": [
        {
          "internalType": "address",
          "name": "",
          "type": "address"
        }
      ],
      "stateMutability": "view",
      "type": "function"
    },
    {
      "inputs": [
        {
          "internalType": "uint256",
          "name": "profileId",
          "type": "uint256"
        },
        {
          "internalType": "uint256",
          "name": "pubId",
          "type": "uint256"
        }
      ],
      "name": "getCollectNFT",
      "outputs": [
        {
          "internalType": "address",
          "name": "",
          "type": "address"
        }
      ],
      "stateMutability": "view",
      "type": "function"
    },
    {
      "inputs": [
        {
          "internalType": "uint256",
          "name": "profileId",
          "type": "uint256"
        },
        {
          "internalType": "uint256",
          "name": "pubId",
          "type": "uint256"
        }
      ],
      "name": "getContentURI",
      "outputs": [
        {
          "internalType": "string",
          "name": "",
          "type": "string"
        }
      ],
      "stateMutability": "view",
      "type": "function"
    },
    {
      "inputs": [
        {
          "internalType": "uint256",
          "name": "profileId",
          "type": "uint256"
        }
      ],
      "name": "getDispatcher",
      "outputs": [
        {
          "internalType": "address",
          "name": "",
          "type": "address"
        }
      ],
      "stateMutability": "view",
      "type": "function"
    },
    {
      "inputs": [],
      "name": "getDomainSeparator",
      "outputs": [
        {
          "internalType": "bytes32",
          "name": "",
          "type": "bytes32"
        }
      ],
      "stateMutability": "view",
      "type": "function"
    },
    {
      "inputs": [
        {
          "internalType": "uint256",
          "name": "profileId",
          "type": "uint256"
        }
      ],
      "name": "getFollowModule",
      "outputs": [
        {
          "internalType": "address",
          "name": "",
          "type": "address"
        }
      ],
      "stateMutability": "view",
      "type": "function"
    },
    {
      "inputs": [
        {
          "internalType": "uint256",
          "name": "profileId",
          "type": "uint256"
        }
      ],
      "name": "getFollowNFT",
      "outputs": [
        {
          "internalType": "address",
          "name": "",
          "type": "address"
        }
      ],
      "stateMutability": "view",
      "type": "function"
    },
    {
      "inputs": [
        {
          "internalType": "uint256",
          "name": "profileId",
          "type": "uint256"
        }
      ],
      "name": "getFollowNFTURI",
      "outputs": [
        {
          "internalType": "string",
          "name": "",
          "type": "string"
        }
      ],
      "stateMutability": "view",
      "type": "function"
    },
    {
      "inputs": [],
      "name": "getGovernance",
      "outputs": [
        {
          "internalType": "address",
          "name": "",
          "type": "address"
        }
      ],
      "stateMutability": "view",
      "type": "function"
    },
    {
      "inputs": [
        {
          "internalType": "uint256",
          "name": "profileId",
          "type": "uint256"
        }
      ],
      "name": "getHandle",
      "outputs": [
        {
          "internalType": "string",
          "name": "",
          "type": "string"
        }
      ],
      "stateMutability": "view",
      "type": "function"
    },
    {
      "inputs": [
        {
          "internalType": "uint256",
          "name": "profileId",
          "type": "uint256"
        }
      ],
      "name": "getProfile",
      "outputs": [
        {
          "components": [
            {
              "internalType": "uint256",
              "name": "pubCount",
              "type": "uint256"
            },
            {
              "internalType": "address",
              "name": "followModule",
              "type": "address"
            },
            {
              "internalType": "address",
              "name": "followNFT",
              "type": "address"
            },
            {
              "internalType": "string",
              "name": "handle",
              "type": "string"
            },
            {
              "internalType": "string",
              "name": "imageURI",
              "type": "string"
            },
            {
              "internalType": "string",
              "name": "followNFTURI",
              "type": "string"
            }
          ],
          "internalType": "struct DataTypes.ProfileStruct",
          "name": "",
          "type": "tuple"
        }
      ],
      "stateMutability": "view",
      "type": "function"
    },
    {
      "inputs": [
        {
          "internalType": "string",
          "name": "handle",
          "type": "string"
        }
      ],
      "name": "getProfileIdByHandle",
      "outputs": [
        {
          "internalType": "uint256",
          "name": "",
          "type": "uint256"
        }
      ],
      "stateMutability": "view",
      "type": "function"
    },
    {
      "inputs": [
        {
          "internalType": "uint256",
          "name": "profileId",
          "type": "uint256"
        },
        {
          "internalType": "uint256",
          "name": "pubId",
          "type": "uint256"
        }
      ],
      "name": "getPub",
      "outputs": [
        {
          "components": [
            {
              "internalType": "uint256",
              "name": "profileIdPointed",
              "type": "uint256"
            },
            {
              "internalType": "uint256",
              "name": "pubIdPointed",
              "type": "uint256"
            },
            {
              "internalType": "string",
              "name": "contentURI",
              "type": "string"
            },
            {
              "internalType": "address",
              "name": "referenceModule",
              "type": "address"
            },
            {
              "internalType": "address",
              "name": "collectModule",
              "type": "address"
            },
            {
              "internalType": "address",
              "name": "collectNFT",
              "type": "address"
            }
          ],
          "internalType": "struct DataTypes.PublicationStruct",
          "name": "",
          "type": "tuple"
        }
      ],
      "stateMutability": "view",
      "type": "function"
    },
    {
      "inputs": [
        {
          "internalType": "uint256",
          "name": "profileId",
          "type": "uint256"
        }
      ],
      "name": "getPubCount",
      "outputs": [
        {
          "internalType": "uint256",
          "name": "",
          "type": "uint256"
        }
      ],
      "stateMutability": "view",
      "type": "function"
    },
    {
      "inputs": [
        {
          "internalType": "uint256",
          "name": "profileId",
          "type": "uint256"
        },
        {
          "internalType": "uint256",
          "name": "pubId",
          "type": "uint256"
        }
      ],
      "name": "getPubPointer",
      "outputs": [
        {
          "internalType": "uint256",
          "name": "",
          "type": "uint256"
        },
        {
          "internalType": "uint256",
          "name": "",
          "type": "uint256"
        }
      ],
      "stateMutability": "view",
      "type": "function"
    },
    {
      "inputs": [
        {
          "internalType": "uint256",
          "name": "profileId",
          "type": "uint256"
        },
        {
          "internalType": "uint256",
          "name": "pubId",
          "type": "uint256"
        }
      ],
      "name": "getPubType",
      "outputs": [
        {
          "internalType": "enum DataTypes.PubType",
          "name": "",
          "type": "uint8"
        }
      ],
      "stateMutability": "view",
      "type": "function"
    },
    {
      "inputs": [
        {
          "internalType": "uint256",
          "name": "profileId",
          "type": "uint256"
        },
        {
          "internalType": "uint256",
          "name": "pubId",
          "type": "uint256"
        }
      ],
      "name": "getReferenceModule",
      "outputs": [
        {
          "internalType": "address",
          "name": "",
          "type": "address"
        }
      ],
      "stateMutability": "view",
      "type": "function"
    },
    {
      "inputs": [],
      "name": "getState",
      "outputs": [
        {
          "internalType": "enum DataTypes.ProtocolState",
          "name": "",
          "type": "uint8"
        }
      ],
      "stateMutability": "view",
      "type": "function"
    },
    {
      "inputs": [
        {
          "internalType": "string",
          "name": "name",
          "type": "string"
        },
        {
          "internalType": "string",
          "name": "symbol",
          "type": "string"
        },
        {
          "internalType": "address",
          "name": "newGovernance",
          "type": "address"
        }
      ],
      "name": "initialize",
      "outputs": [],
      "stateMutability": "nonpayable",
      "type": "function"
    },
    {
      "inputs": [
        {
          "internalType": "address",
          "name": "owner",
          "type": "address"
        },
        {
          "internalType": "address",
          "name": "operator",
          "type": "address"
        }
      ],
      "name": "isApprovedForAll",
      "outputs": [
        {
          "internalType": "bool",
          "name": "",
          "type": "bool"
        }
      ],
      "stateMutability": "view",
      "type": "function"
    },
    {
      "inputs": [
        {
          "internalType": "address",
          "name": "collectModule",
          "type": "address"
        }
      ],
      "name": "isCollectModuleWhitelisted",
      "outputs": [
        {
          "internalType": "bool",
          "name": "",
          "type": "bool"
        }
      ],
      "stateMutability": "view",
      "type": "function"
    },
    {
      "inputs": [
        {
          "internalType": "address",
          "name": "followModule",
          "type": "address"
        }
      ],
      "name": "isFollowModuleWhitelisted",
      "outputs": [
        {
          "internalType": "bool",
          "name": "",
          "type": "bool"
        }
      ],
      "stateMutability": "view",
      "type": "function"
    },
    {
      "inputs": [
        {
          "internalType": "address",
          "name": "profileCreator",
          "type": "address"
        }
      ],
      "name": "isProfileCreatorWhitelisted",
      "outputs": [
        {
          "internalType": "bool",
          "name": "",
          "type": "bool"
        }
      ],
      "stateMutability": "view",
      "type": "function"
    },
    {
      "inputs": [
        {
          "internalType": "address",
          "name": "referenceModule",
          "type": "address"
        }
      ],
      "name": "isReferenceModuleWhitelisted",
      "outputs": [
        {
          "internalType": "bool",
          "name": "",
          "type": "bool"
        }
      ],
      "stateMutability": "view",
      "type": "function"
    },
    {
      "inputs": [
        {
          "internalType": "uint256",
          "name": "tokenId",
          "type": "uint256"
        }
      ],
      "name": "mintTimestampOf",
      "outputs": [
        {
          "internalType": "uint256",
          "name": "",
          "type": "uint256"
        }
      ],
      "stateMutability": "view",
      "type": "function"
    },
    {
      "inputs": [
        {
          "components": [
            {
              "internalType": "uint256",
              "name": "profileId",
              "type": "uint256"
            },
            {
              "internalType": "uint256",
              "name": "profileIdPointed",
              "type": "uint256"
            },
            {
              "internalType": "uint256",
              "name": "pubIdPointed",
              "type": "uint256"
            },
            {
              "internalType": "address",
              "name": "referenceModule",
              "type": "address"
            },
            {
              "internalType": "bytes",
              "name": "referenceModuleData",
              "type": "bytes"
            }
          ],
          "internalType": "struct DataTypes.MirrorData",
          "name": "vars",
          "type": "tuple"
        }
      ],
      "name": "mirror",
      "outputs": [],
      "stateMutability": "nonpayable",
      "type": "function"
    },
    {
      "inputs": [
        {
          "components": [
            {
              "internalType": "uint256",
              "name": "profileId",
              "type": "uint256"
            },
            {
              "internalType": "uint256",
              "name": "profileIdPointed",
              "type": "uint256"
            },
            {
              "internalType": "uint256",
              "name": "pubIdPointed",
              "type": "uint256"
            },
            {
              "internalType": "address",
              "name": "referenceModule",
              "type": "address"
            },
            {
              "internalType": "bytes",
              "name": "referenceModuleData",
              "type": "bytes"
            },
            {
              "components": [
                {
                  "internalType": "uint8",
                  "name": "v",
                  "type": "uint8"
                },
                {
                  "internalType": "bytes32",
                  "name": "r",
                  "type": "bytes32"
                },
                {
                  "internalType": "bytes32",
                  "name": "s",
                  "type": "bytes32"
                },
                {
                  "internalType": "uint256",
                  "name": "deadline",
                  "type": "uint256"
                }
              ],
              "internalType": "struct DataTypes.EIP712Signature",
              "name": "sig",
              "type": "tuple"
            }
          ],
          "internalType": "struct DataTypes.MirrorWithSigData",
          "name": "vars",
          "type": "tuple"
        }
      ],
      "name": "mirrorWithSig",
      "outputs": [],
      "stateMutability": "nonpayable",
      "type": "function"
    },
    {
      "inputs": [],
      "name": "name",
      "outputs": [
        {
          "internalType": "string",
          "name": "",
          "type": "string"
        }
      ],
      "stateMutability": "view",
      "type": "function"
    },
    {
      "inputs": [
        {
          "internalType": "uint256",
          "name": "tokenId",
          "type": "uint256"
        }
      ],
      "name": "ownerOf",
      "outputs": [
        {
          "internalType": "address",
          "name": "",
          "type": "address"
        }
      ],
      "stateMutability": "view",
      "type": "function"
    },
    {
      "inputs": [
        {
          "internalType": "address",
          "name": "spender",
          "type": "address"
        },
        {
          "internalType": "uint256",
          "name": "tokenId",
          "type": "uint256"
        },
        {
          "components": [
            {
              "internalType": "uint8",
              "name": "v",
              "type": "uint8"
            },
            {
              "internalType": "bytes32",
              "name": "r",
              "type": "bytes32"
            },
            {
              "internalType": "bytes32",
              "name": "s",
              "type": "bytes32"
            },
            {
              "internalType": "uint256",
              "name": "deadline",
              "type": "uint256"
            }
          ],
          "internalType": "struct DataTypes.EIP712Signature",
          "name": "sig",
          "type": "tuple"
        }
      ],
      "name": "permit",
      "outputs": [],
      "stateMutability": "nonpayable",
      "type": "function"
    },
    {
      "inputs": [
        {
          "internalType": "address",
          "name": "owner",
          "type": "address"
        },
        {
          "internalType": "address",
          "name": "operator",
          "type": "address"
        },
        {
          "internalType": "bool",
          "name": "approved",
          "type": "bool"
        },
        {
          "components": [
            {
              "internalType": "uint8",
              "name": "v",
              "type": "uint8"
            },
            {
              "internalType": "bytes32",
              "name": "r",
              "type": "bytes32"
            },
            {
              "internalType": "bytes32",
              "name": "s",
              "type": "bytes32"
            },
            {
              "internalType": "uint256",
              "name": "deadline",
              "type": "uint256"
            }
          ],
          "internalType": "struct DataTypes.EIP712Signature",
          "name": "sig",
          "type": "tuple"
        }
      ],
      "name": "permitForAll",
      "outputs": [],
      "stateMutability": "nonpayable",
      "type": "function"
    },
    {
      "inputs": [
        {
          "components": [
            {
              "internalType": "uint256",
              "name": "profileId",
              "type": "uint256"
            },
            {
              "internalType": "string",
              "name": "contentURI",
              "type": "string"
            },
            {
              "internalType": "address",
              "name": "collectModule",
              "type": "address"
            },
            {
              "internalType": "bytes",
              "name": "collectModuleData",
              "type": "bytes"
            },
            {
              "internalType": "address",
              "name": "referenceModule",
              "type": "address"
            },
            {
              "internalType": "bytes",
              "name": "referenceModuleData",
              "type": "bytes"
            }
          ],
          "internalType": "struct DataTypes.PostData",
          "name": "vars",
          "type": "tuple"
        }
      ],
      "name": "post",
      "outputs": [],
      "stateMutability": "nonpayable",
      "type": "function"
    },
    {
      "inputs": [
        {
          "components": [
            {
              "internalType": "uint256",
              "name": "profileId",
              "type": "uint256"
            },
            {
              "internalType": "string",
              "name": "contentURI",
              "type": "string"
            },
            {
              "internalType": "address",
              "name": "collectModule",
              "type": "address"
            },
            {
              "internalType": "bytes",
              "name": "collectModuleData",
              "type": "bytes"
            },
            {
              "internalType": "address",
              "name": "referenceModule",
              "type": "address"
            },
            {
              "internalType": "bytes",
              "name": "referenceModuleData",
              "type": "bytes"
            },
            {
              "components": [
                {
                  "internalType": "uint8",
                  "name": "v",
                  "type": "uint8"
                },
                {
                  "internalType": "bytes32",
                  "name": "r",
                  "type": "bytes32"
                },
                {
                  "internalType": "bytes32",
                  "name": "s",
                  "type": "bytes32"
                },
                {
                  "internalType": "uint256",
                  "name": "deadline",
                  "type": "uint256"
                }
              ],
              "internalType": "struct DataTypes.EIP712Signature",
              "name": "sig",
              "type": "tuple"
            }
          ],
          "internalType": "struct DataTypes.PostWithSigData",
          "name": "vars",
          "type": "tuple"
        }
      ],
      "name": "postWithSig",
      "outputs": [],
      "stateMutability": "nonpayable",
      "type": "function"
    },
    {
      "inputs": [
        {
          "internalType": "address",
          "name": "from",
          "type": "address"
        },
        {
          "internalType": "address",
          "name": "to",
          "type": "address"
        },
        {
          "internalType": "uint256",
          "name": "tokenId",
          "type": "uint256"
        }
      ],
      "name": "safeTransferFrom",
      "outputs": [],
      "stateMutability": "nonpayable",
      "type": "function"
    },
    {
      "inputs": [
        {
          "internalType": "address",
          "name": "from",
          "type": "address"
        },
        {
          "internalType": "address",
          "name": "to",
          "type": "address"
        },
        {
          "internalType": "uint256",
          "name": "tokenId",
          "type": "uint256"
        },
        {
          "internalType": "bytes",
          "name": "_data",
          "type": "bytes"
        }
      ],
      "name": "safeTransferFrom",
      "outputs": [],
      "stateMutability": "nonpayable",
      "type": "function"
    },
    {
      "inputs": [
        {
          "internalType": "address",
          "name": "operator",
          "type": "address"
        },
        {
          "internalType": "bool",
          "name": "approved",
          "type": "bool"
        }
      ],
      "name": "setApprovalForAll",
      "outputs": [],
      "stateMutability": "nonpayable",
      "type": "function"
    },
    {
      "inputs": [
        {
          "internalType": "uint256",
          "name": "profileId",
          "type": "uint256"
        }
      ],
      "name": "setDefaultProfile",
      "outputs": [],
      "stateMutability": "nonpayable",
      "type": "function"
    },
    {
      "inputs": [
        {
          "components": [
            {
              "internalType": "address",
              "name": "wallet",
              "type": "address"
            },
            {
              "internalType": "uint256",
              "name": "profileId",
              "type": "uint256"
            },
            {
              "components": [
                {
                  "internalType": "uint8",
                  "name": "v",
                  "type": "uint8"
                },
                {
                  "internalType": "bytes32",
                  "name": "r",
                  "type": "bytes32"
                },
                {
                  "internalType": "bytes32",
                  "name": "s",
                  "type": "bytes32"
                },
                {
                  "internalType": "uint256",
                  "name": "deadline",
                  "type": "uint256"
                }
              ],
              "internalType": "struct DataTypes.EIP712Signature",
              "name": "sig",
              "type": "tuple"
            }
          ],
          "internalType": "struct DataTypes.SetDefaultProfileWithSigData",
          "name": "vars",
          "type": "tuple"
        }
      ],
      "name": "setDefaultProfileWithSig",
      "outputs": [],
      "stateMutability": "nonpayable",
      "type": "function"
    },
    {
      "inputs": [
        {
          "internalType": "uint256",
          "name": "profileId",
          "type": "uint256"
        },
        {
          "internalType": "address",
          "name": "dispatcher",
          "type": "address"
        }
      ],
      "name": "setDispatcher",
      "outputs": [],
      "stateMutability": "nonpayable",
      "type": "function"
    },
    {
      "inputs": [
        {
          "components": [
            {
              "internalType": "uint256",
              "name": "profileId",
              "type": "uint256"
            },
            {
              "internalType": "address",
              "name": "dispatcher",
              "type": "address"
            },
            {
              "components": [
                {
                  "internalType": "uint8",
                  "name": "v",
                  "type": "uint8"
                },
                {
                  "internalType": "bytes32",
                  "name": "r",
                  "type": "bytes32"
                },
                {
                  "internalType": "bytes32",
                  "name": "s",
                  "type": "bytes32"
                },
                {
                  "internalType": "uint256",
                  "name": "deadline",
                  "type": "uint256"
                }
              ],
              "internalType": "struct DataTypes.EIP712Signature",
              "name": "sig",
              "type": "tuple"
            }
          ],
          "internalType": "struct DataTypes.SetDispatcherWithSigData",
          "name": "vars",
          "type": "tuple"
        }
      ],
      "name": "setDispatcherWithSig",
      "outputs": [],
      "stateMutability": "nonpayable",
      "type": "function"
    },
    {
      "inputs": [
        {
          "internalType": "address",
          "name": "newEmergencyAdmin",
          "type": "address"
        }
      ],
      "name": "setEmergencyAdmin",
      "outputs": [],
      "stateMutability": "nonpayable",
      "type": "function"
    },
    {
      "inputs": [
        {
          "internalType": "uint256",
          "name": "profileId",
          "type": "uint256"
        },
        {
          "internalType": "address",
          "name": "followModule",
          "type": "address"
        },
        {
          "internalType": "bytes",
          "name": "followModuleData",
          "type": "bytes"
        }
      ],
      "name": "setFollowModule",
      "outputs": [],
      "stateMutability": "nonpayable",
      "type": "function"
    },
    {
      "inputs": [
        {
          "components": [
            {
              "internalType": "uint256",
              "name": "profileId",
              "type": "uint256"
            },
            {
              "internalType": "address",
              "name": "followModule",
              "type": "address"
            },
            {
              "internalType": "bytes",
              "name": "followModuleData",
              "type": "bytes"
            },
            {
              "components": [
                {
                  "internalType": "uint8",
                  "name": "v",
                  "type": "uint8"
                },
                {
                  "internalType": "bytes32",
                  "name": "r",
                  "type": "bytes32"
                },
                {
                  "internalType": "bytes32",
                  "name": "s",
                  "type": "bytes32"
                },
                {
                  "internalType": "uint256",
                  "name": "deadline",
                  "type": "uint256"
                }
              ],
              "internalType": "struct DataTypes.EIP712Signature",
              "name": "sig",
              "type": "tuple"
            }
          ],
          "internalType": "struct DataTypes.SetFollowModuleWithSigData",
          "name": "vars",
          "type": "tuple"
        }
      ],
      "name": "setFollowModuleWithSig",
      "outputs": [],
      "stateMutability": "nonpayable",
      "type": "function"
    },
    {
      "inputs": [
        {
          "internalType": "uint256",
          "name": "profileId",
          "type": "uint256"
        },
        {
          "internalType": "string",
          "name": "followNFTURI",
          "type": "string"
        }
      ],
      "name": "setFollowNFTURI",
      "outputs": [],
      "stateMutability": "nonpayable",
      "type": "function"
    },
    {
      "inputs": [
        {
          "components": [
            {
              "internalType": "uint256",
              "name": "profileId",
              "type": "uint256"
            },
            {
              "internalType": "string",
              "name": "followNFTURI",
              "type": "string"
            },
            {
              "components": [
                {
                  "internalType": "uint8",
                  "name": "v",
                  "type": "uint8"
                },
                {
                  "internalType": "bytes32",
                  "name": "r",
                  "type": "bytes32"
                },
                {
                  "internalType": "bytes32",
                  "name": "s",
                  "type": "bytes32"
                },
                {
                  "internalType": "uint256",
                  "name": "deadline",
                  "type": "uint256"
                }
              ],
              "internalType": "struct DataTypes.EIP712Signature",
              "name": "sig",
              "type": "tuple"
            }
          ],
          "internalType": "struct DataTypes.SetFollowNFTURIWithSigData",
          "name": "vars",
          "type": "tuple"
        }
      ],
      "name": "setFollowNFTURIWithSig",
      "outputs": [],
      "stateMutability": "nonpayable",
      "type": "function"
    },
    {
      "inputs": [
        {
          "internalType": "address",
          "name": "newGovernance",
          "type": "address"
        }
      ],
      "name": "setGovernance",
      "outputs": [],
      "stateMutability": "nonpayable",
      "type": "function"
    },
    {
      "inputs": [
        {
          "internalType": "uint256",
          "name": "profileId",
          "type": "uint256"
        },
        {
          "internalType": "string",
          "name": "imageURI",
          "type": "string"
        }
      ],
      "name": "setProfileImageURI",
      "outputs": [],
      "stateMutability": "nonpayable",
      "type": "function"
    },
    {
      "inputs": [
        {
          "components": [
            {
              "internalType": "uint256",
              "name": "profileId",
              "type": "uint256"
            },
            {
              "internalType": "string",
              "name": "imageURI",
              "type": "string"
            },
            {
              "components": [
                {
                  "internalType": "uint8",
                  "name": "v",
                  "type": "uint8"
                },
                {
                  "internalType": "bytes32",
                  "name": "r",
                  "type": "bytes32"
                },
                {
                  "internalType": "bytes32",
                  "name": "s",
                  "type": "bytes32"
                },
                {
                  "internalType": "uint256",
                  "name": "deadline",
                  "type": "uint256"
                }
              ],
              "internalType": "struct DataTypes.EIP712Signature",
              "name": "sig",
              "type": "tuple"
            }
          ],
          "internalType": "struct DataTypes.SetProfileImageURIWithSigData",
          "name": "vars",
          "type": "tuple"
        }
      ],
      "name": "setProfileImageURIWithSig",
      "outputs": [],
      "stateMutability": "nonpayable",
      "type": "function"
    },
    {
      "inputs": [
        {
          "internalType": "enum DataTypes.ProtocolState",
          "name": "newState",
          "type": "uint8"
        }
      ],
      "name": "setState",
      "outputs": [],
      "stateMutability": "nonpayable",
      "type": "function"
    },
    {
      "inputs": [
        {
          "internalType": "address",
          "name": "",
          "type": "address"
        }
      ],
      "name": "sigNonces",
      "outputs": [
        {
          "internalType": "uint256",
          "name": "",
          "type": "uint256"
        }
      ],
      "stateMutability": "view",
      "type": "function"
    },
    {
      "inputs": [
        {
          "internalType": "bytes4",
          "name": "interfaceId",
          "type": "bytes4"
        }
      ],
      "name": "supportsInterface",
      "outputs": [
        {
          "internalType": "bool",
          "name": "",
          "type": "bool"
        }
      ],
      "stateMutability": "view",
      "type": "function"
    },
    {
      "inputs": [],
      "name": "symbol",
      "outputs": [
        {
          "internalType": "string",
          "name": "",
          "type": "string"
        }
      ],
      "stateMutability": "view",
      "type": "function"
    },
    {
      "inputs": [
        {
          "internalType": "uint256",
          "name": "index",
          "type": "uint256"
        }
      ],
      "name": "tokenByIndex",
      "outputs": [
        {
          "internalType": "uint256",
          "name": "",
          "type": "uint256"
        }
      ],
      "stateMutability": "view",
      "type": "function"
    },
    {
      "inputs": [
        {
          "internalType": "uint256",
          "name": "tokenId",
          "type": "uint256"
        }
      ],
      "name": "tokenDataOf",
      "outputs": [
        {
          "components": [
            {
              "internalType": "address",
              "name": "owner",
              "type": "address"
            },
            {
              "internalType": "uint96",
              "name": "mintTimestamp",
              "type": "uint96"
            }
          ],
          "internalType": "struct IERC721Time.TokenData",
          "name": "",
          "type": "tuple"
        }
      ],
      "stateMutability": "view",
      "type": "function"
    },
    {
      "inputs": [
        {
          "internalType": "address",
          "name": "owner",
          "type": "address"
        },
        {
          "internalType": "uint256",
          "name": "index",
          "type": "uint256"
        }
      ],
      "name": "tokenOfOwnerByIndex",
      "outputs": [
        {
          "internalType": "uint256",
          "name": "",
          "type": "uint256"
        }
      ],
      "stateMutability": "view",
      "type": "function"
    },
    {
      "inputs": [
        {
          "internalType": "uint256",
          "name": "tokenId",
          "type": "uint256"
        }
      ],
      "name": "tokenURI",
      "outputs": [
        {
          "internalType": "string",
          "name": "",
          "type": "string"
        }
      ],
      "stateMutability": "view",
      "type": "function"
    },
    {
      "inputs": [],
      "name": "totalSupply",
      "outputs": [
        {
          "internalType": "uint256",
          "name": "",
          "type": "uint256"
        }
      ],
      "stateMutability": "view",
      "type": "function"
    },
    {
      "inputs": [
        {
          "internalType": "address",
          "name": "from",
          "type": "address"
        },
        {
          "internalType": "address",
          "name": "to",
          "type": "address"
        },
        {
          "internalType": "uint256",
          "name": "tokenId",
          "type": "uint256"
        }
      ],
      "name": "transferFrom",
      "outputs": [],
      "stateMutability": "nonpayable",
      "type": "function"
    },
    {
      "inputs": [
        {
          "internalType": "address",
          "name": "collectModule",
          "type": "address"
        },
        {
          "internalType": "bool",
          "name": "whitelist",
          "type": "bool"
        }
      ],
      "name": "whitelistCollectModule",
      "outputs": [],
      "stateMutability": "nonpayable",
      "type": "function"
    },
    {
      "inputs": [
        {
          "internalType": "address",
          "name": "followModule",
          "type": "address"
        },
        {
          "internalType": "bool",
          "name": "whitelist",
          "type": "bool"
        }
      ],
      "name": "whitelistFollowModule",
      "outputs": [],
      "stateMutability": "nonpayable",
      "type": "function"
    },
    {
      "inputs": [
        {
          "internalType": "address",
          "name": "profileCreator",
          "type": "address"
        },
        {
          "internalType": "bool",
          "name": "whitelist",
          "type": "bool"
        }
      ],
      "name": "whitelistProfileCreator",
      "outputs": [],
      "stateMutability": "nonpayable",
      "type": "function"
    },
    {
      "inputs": [
        {
          "internalType": "address",
          "name": "referenceModule",
          "type": "address"
        },
        {
          "internalType": "bool",
          "name": "whitelist",
          "type": "bool"
        }
      ],
      "name": "whitelistReferenceModule",
      "outputs": [],
      "stateMutability": "nonpayable",
      "type": "function"
    }
  ],
  "bytecode": "0x60e06040526000600b553480156200001657600080fd5b506040516200a8853803806200a88583398181016040528101906200003c91906200014a565b3073ffffffffffffffffffffffffffffffffffffffff1660808173ffffffffffffffffffffffffffffffffffffffff16815250508173ffffffffffffffffffffffffffffffffffffffff1660a08173ffffffffffffffffffffffffffffffffffffffff16815250508073ffffffffffffffffffffffffffffffffffffffff1660c08173ffffffffffffffffffffffffffffffffffffffff1681525050505062000191565b600080fd5b600073ffffffffffffffffffffffffffffffffffffffff82169050919050565b60006200011282620000e5565b9050919050565b620001248162000105565b81146200013057600080fd5b50565b600081519050620001448162000119565b92915050565b60008060408385031215620001645762000163620000e0565b5b6000620001748582860162000133565b9250506020620001878582860162000133565b9150509250929050565b60805160a05160c05161a6b6620001cf6000396000818161262f015261352a015260008181612bd301526148b001526000611102015261a6b66000f3fe608060405234801561001057600080fd5b506004361061046a5760003560e01c806389028a131161024c578063bd12d3f011610146578063dd69cdb1116100c3578063f08f4f6411610087578063f08f4f6414610ed0578063f1b2f8bc14610f00578063f990ccd714610f1c578063fb78ae6c14610f4c578063ffea138e14610f685761046a565b8063dd69cdb114610e1a578063e985e9c514610e36578063ec81d19414610e66578063ecfab8fa14610e96578063ed24911d14610eb25761046a565b8063c6b5d06c1161010a578063c6b5d06c14610d52578063c736c99014610d6e578063c87b56dd14610d9e578063d923d20c14610dce578063dc21725314610dfe5761046a565b8063bd12d3f014610cb2578063bdfdd4bc14610cce578063bfbf0b4b14610cea578063bfd24f4714610d06578063c0da9bcd14610d225761046a565b8063a2c79772116101d4578063af05dd2211610198578063af05dd2214610bea578063b48951e414610c1a578063b5a3149614610c36578063b7984c0514610c66578063b88d4fde14610c965761046a565b8063a2c7977214610b36578063a6d8e1e414610b52578063a9ec656314610b6e578063ab033ea914610b9e578063ad3e72bf14610bba5761046a565b806392254a621161021b57806392254a6214610a9457806395d89b4114610ac4578063963ff14114610ae25780639b84a14c14610afe578063a22cb46514610b1a5761046a565b806389028a1314610a105780638e204fb414610a2c5780638e4fd6a914610a5c5780638f14b45f14610a785761046a565b80633b28b89f1161036857806356de96db116102e55780636dea40b3116102a95780636dea40b31461097057806370a082311461098c5780637ef67f99146109bc57806384114ad4146109d857806386e2947b146109f45761046a565b806356de96db146108a757806357ff49f6146108c35780635ca3eebf146108f35780636352211e146109245780636a4e66d2146109545761046a565b80634f558e791161032c5780634f558e79146107b75780634f6ccce7146107e757806350ddf35c1461081757806352aaef5514610847578063540528b9146108775761046a565b80633b28b89f1461072b5780633b508132146107475780634187e4c51461076357806342842e0e1461077f57806342966c681461079b5761046a565b806320905506116103f657806331dcebe3116103ba57806331dcebe31461066357806331fff07c1461067f57806335da3394146106af578063374c9473146106cb5780633a15ff07146106fb5761046a565b806320905506146105ad57806320fa728a146105c957806323b872dd146105f9578063289b3c0d146106155780632f745c59146106335761046a565b8063081812fc1161043d578063081812fc146104f5578063095ea7b31461052557806318160ddd146105415780631865c57d1461055f5780631cbb26201461057d5761046a565b806301ffc9a71461046f578063054871b81461049f57806306fdde03146104bb578063077f224a146104d9575b600080fd5b61048960048036038101906104849190616d13565b610f84565b6040516104969190616d5b565b60405180910390f35b6104b960048036038101906104b49190616e11565b610ffe565b005b6104c3611062565b6040516104d09190616f0a565b60405180910390f35b6104f360048036038101906104ee9190616f8a565b6110f4565b005b61050f600480360381019061050a919061701f565b6111ef565b60405161051c919061705b565b60405180910390f35b61053f600480360381019061053a9190617076565b611274565b005b61054961138c565b60405161055691906170c5565b60405180910390f35b610567611399565b6040516105749190617157565b60405180910390f35b61059760048036038101906105929190617172565b6113b0565b6040516105a49190616d5b565b60405180910390f35b6105c760048036038101906105c291906171cb565b611406565b005b6105e360048036038101906105de919061720b565b6114ba565b6040516105f091906170c5565b60405180910390f35b610613600480360381019061060e9190617258565b6114f4565b005b61061d611554565b60405161062a919061705b565b60405180910390f35b61064d60048036038101906106489190617076565b61157e565b60405161065a91906170c5565b60405180910390f35b61067d600480360381019061067891906171cb565b611623565b005b610699600480360381019061069491906172ab565b6116d7565b6040516106a69190617333565b60405180910390f35b6106c960048036038101906106c49190617172565b6117d3565b005b6106e560048036038101906106e0919061701f565b6118c3565b6040516106f29190616f0a565b60405180910390f35b6107156004803603810190610710919061701f565b61196b565b60405161072291906170c5565b60405180910390f35b61074560048036038101906107409190617372565b61198b565b005b610761600480360381019061075c91906173db565b611b5f565b005b61077d600480360381019061077891906171cb565b611e15565b005b61079960048036038101906107949190617258565b611ec9565b005b6107b560048036038101906107b0919061701f565b611ee9565b005b6107d160048036038101906107cc919061701f565b611f06565b6040516107de9190616d5b565b60405180910390f35b61080160048036038101906107fc919061701f565b611f18565b60405161080e91906170c5565b60405180910390f35b610831600480360381019061082c919061701f565b611f89565b60405161083e91906170c5565b60405180910390f35b610861600480360381019061085c91906172ab565b612026565b60405161086e919061705b565b60405180910390f35b610891600480360381019061088c919061701f565b612078565b60405161089e919061705b565b60405180910390f35b6108c160048036038101906108bc9190617449565b6120b5565b005b6108dd60048036038101906108d891906172ab565b6121a4565b6040516108ea919061705b565b60405180910390f35b61090d600480360381019061090891906172ab565b6121f6565b60405161091b929190617476565b60405180910390f35b61093e6004803603810190610939919061701f565b612260565b60405161094b919061705b565b60405180910390f35b61096e600480360381019061096991906174be565b612315565b005b61098a6004803603810190610985919061755d565b612367565b005b6109a660048036038101906109a19190617172565b612402565b6040516109b391906170c5565b60405180910390f35b6109d660048036038101906109d191906175f0565b6124ba565b005b6109f260048036038101906109ed9190617643565b612606565b005b610a0e6004803603810190610a0991906176b7565b6126ab565b005b610a2a6004803603810190610a259190617732565b6127a2565b005b610a466004803603810190610a419190617172565b6128e4565b604051610a539190616d5b565b60405180910390f35b610a766004803603810190610a7191906177b8565b61293a565b005b610a926004803603810190610a8d9190617821565b612c4d565b005b610aae6004803603810190610aa99190617172565b612dbb565b604051610abb91906170c5565b60405180910390f35b610acc612e04565b604051610ad99190616f0a565b60405180910390f35b610afc6004803603810190610af79190617889565b612e96565b005b610b186004803603810190610b1391906178f1565b612fda565b005b610b346004803603810190610b2f91906171cb565b61314e565b005b610b506004803603810190610b4b919061795a565b6131da565b005b610b6c6004803603810190610b6791906171cb565b613204565b005b610b886004803603810190610b83919061701f565b6132b8565b604051610b95919061705b565b60405180910390f35b610bb86004803603810190610bb39190617172565b6132f8565b005b610bd46004803603810190610bcf9190617172565b61330c565b604051610be19190616d5b565b60405180910390f35b610c046004803603810190610bff9190617172565b613362565b604051610c119190616d5b565b60405180910390f35b610c346004803603810190610c2f91906179c3565b6133b8565b005b610c506004803603810190610c4b91906172ab565b6135a3565b604051610c5d9190616f0a565b60405180910390f35b610c806004803603810190610c7b91906172ab565b613673565b604051610c8d919061705b565b60405180910390f35b610cb06004803603810190610cab9190617b3c565b6136c5565b005b610ccc6004803603810190610cc79190617bde565b613727565b005b610ce86004803603810190610ce39190617c27565b61389b565b005b610d046004803603810190610cff9190617cad565b61397f565b005b610d206004803603810190610d1b9190617cda565b613aa0565b005b610d3c6004803603810190610d37919061701f565b613abf565b604051610d499190617d7f565b60405180910390f35b610d6c6004803603810190610d679190616e11565b613bc8565b005b610d886004803603810190610d8391906172ab565b613c2c565b604051610d959190617e7c565b60405180910390f35b610db86004803603810190610db3919061701f565b613e13565b604051610dc59190616f0a565b60405180910390f35b610de86004803603810190610de3919061701f565b613fb9565b604051610df5919061705b565b60405180910390f35b610e186004803603810190610e139190617ebd565b613ff9565b005b610e346004803603810190610e2f9190617eea565b61412b565b005b610e506004803603810190610e4b9190617f2a565b61414a565b604051610e5d9190616d5b565b60405180910390f35b610e806004803603810190610e7b919061701f565b6141de565b604051610e8d9190616f0a565b60405180910390f35b610eb06004803603810190610eab9190617f8a565b614286565b005b610eba6145b2565b604051610ec79190617fec565b60405180910390f35b610eea6004803603810190610ee5919061701f565b6145c1565b604051610ef7919061809e565b60405180910390f35b610f1a6004803603810190610f15919061701f565b61485a565b005b610f366004803603810190610f319190617172565b61486f565b604051610f4391906170c5565b60405180910390f35b610f666004803603810190610f61919061816c565b614887565b005b610f826004803603810190610f7d919061820c565b61492c565b005b60007f780e9d63000000000000000000000000000000000000000000000000000000007bffffffffffffffffffffffffffffffffffffffffffffffffffffffff1916827bffffffffffffffffffffffffffffffffffffffffffffffffffffffff19161480610ff75750610ff6826149e7565b5b9050919050565b611006614ac9565b61100f83614b38565b61105d8383838080601f016020809104026020016040519081016040528093929190818152602001838380828437600081840152601f19601f82011690508083019250505050505050614c15565b505050565b60606000805461107190618284565b80601f016020809104026020016040519081016040528092919081815260200182805461109d90618284565b80156110ea5780601f106110bf576101008083540402835291602001916110ea565b820191906000526020600020905b8154815290600101906020018083116110cd57829003601f168201915b5050505050905090565b60006110fe614cbf565b90507f000000000000000000000000000000000000000000000000000000000000000073ffffffffffffffffffffffffffffffffffffffff163073ffffffffffffffffffffffffffffffffffffffff161415611186576040517f971d041400000000000000000000000000000000000000000000000000000000815260040160405180910390fd5b600b5481116111c1576040517f5daa87a000000000000000000000000000000000000000000000000000000000815260040160405180910390fd5b80600b819055506111d486868686614cc8565b6111de6002614d19565b6111e782614dcf565b505050505050565b60006111fa82614eb7565b611239576040517f08c379a000000000000000000000000000000000000000000000000000000000815260040161123090618328565b60405180910390fd5b6004600083815260200190815260200160002060009054906101000a900473ffffffffffffffffffffffffffffffffffffffff169050919050565b600061127f82612260565b90508073ffffffffffffffffffffffffffffffffffffffff168373ffffffffffffffffffffffffffffffffffffffff1614156112f0576040517f08c379a00000000000000000000000000000000000000000000000000000000081526004016112e7906183ba565b60405180910390fd5b8073ffffffffffffffffffffffffffffffffffffffff1661130f614f26565b73ffffffffffffffffffffffffffffffffffffffff16148061133e575061133d81611338614f26565b61414a565b5b61137d576040517f08c379a00000000000000000000000000000000000000000000000000000000081526004016113749061844c565b60405180910390fd5b6113878383614f2e565b505050565b6000600880549050905090565b6000600c60009054906101000a900460ff16905090565b6000600e60008373ffffffffffffffffffffffffffffffffffffffff1673ffffffffffffffffffffffffffffffffffffffff16815260200190815260200160002060009054906101000a900460ff169050919050565b61140e614fe7565b80600d60008473ffffffffffffffffffffffffffffffffffffffff1673ffffffffffffffffffffffffffffffffffffffff16815260200190815260200160002060006101000a81548160ff0219169083151502179055508015158273ffffffffffffffffffffffffffffffffffffffff167f8f617843889b94892bd44852d36ca6a7f49ecf4350a01e7b68e22d80f4ed95bc426040516114ae91906170c5565b60405180910390a35050565b60008083836040516114cd92919061849c565b60405180910390209050601260008281526020019081526020016000205491505092915050565b6115056114ff614f26565b82615070565b611544576040517f08c379a000000000000000000000000000000000000000000000000000000000815260040161153b90618527565b60405180910390fd5b61154f83838361514e565b505050565b6000601760009054906101000a900473ffffffffffffffffffffffffffffffffffffffff16905090565b600061158983612402565b82106115ca576040517f08c379a00000000000000000000000000000000000000000000000000000000081526004016115c1906185b9565b60405180910390fd5b600660008473ffffffffffffffffffffffffffffffffffffffff1673ffffffffffffffffffffffffffffffffffffffff168152602001908152602001600020600083815260200190815260200160002054905092915050565b61162b614fe7565b80600f60008473ffffffffffffffffffffffffffffffffffffffff1673ffffffffffffffffffffffffffffffffffffffff16815260200190815260200160002060006101000a81548160ff0219169083151502179055508015158273ffffffffffffffffffffffffffffffffffffffff167f6cc19a794d6a439023150cd58748eed4353190c0bb060d2e6250e2df4a68b673426040516116cb91906170c5565b60405180910390a35050565b6000808214806116fc5750816013600085815260200190815260200160002060000154105b1561170a57600390506117cd565b600073ffffffffffffffffffffffffffffffffffffffff1660146000858152602001908152602001600020600084815260200190815260200160002060040160009054906101000a900473ffffffffffffffffffffffffffffffffffffffff1673ffffffffffffffffffffffffffffffffffffffff16141561178f57600290506117cd565b60006014600085815260200190815260200160002060008481526020019081526020016000206000015414156117c857600090506117cd565b600190505b92915050565b6117db614fe7565b6000601860009054906101000a900473ffffffffffffffffffffffffffffffffffffffff16905081601860006101000a81548173ffffffffffffffffffffffffffffffffffffffff021916908373ffffffffffffffffffffffffffffffffffffffff1602179055508173ffffffffffffffffffffffffffffffffffffffff168173ffffffffffffffffffffffffffffffffffffffff163373ffffffffffffffffffffffffffffffffffffffff167f676c0801b0f400762e958ee31cfbb10870e70786f6761f57c8647e766b0db3d9426040516118b791906170c5565b60405180910390a45050565b60606013600083815260200190815260200160002060050180546118e690618284565b80601f016020809104026020016040519081016040528092919081815260200182805461191290618284565b801561195f5780601f106119345761010080835404028352916020019161195f565b820191906000526020600020905b81548152906001019060200180831161194257829003601f168201915b50505050509050919050565b600060136000838152602001908152602001600020600001549050919050565b611993614ac9565b60006119a28260000135612260565b9050611aaf611a957f6f3f6455a608af1cc57ef3e5c0a49deeb88bba264ec8865b798ff07358859d4b84600001358560200160208101906119e39190617172565b8680604001906119f391906185e8565b604051611a0192919061849c565b6040518091039020600a60008873ffffffffffffffffffffffffffffffffffffffff1673ffffffffffffffffffffffffffffffffffffffff1681526020019081526020016000206000815480929190611a599061867a565b919050558860600160600135604051602001611a7a969594939291906186c3565b604051602081830303815290604052805190602001206153ad565b8284606001803603810190611aaa919061880b565b6153eb565b73__$4aae4b05f709fe952b396184b8760a821e$__636a7ecf138360000135846020016020810190611ae19190617172565b858060400190611af191906185e8565b6013600089600001358152602001908152602001600020600e6040518763ffffffff1660e01b8152600401611b2b969594939291906188a2565b60006040518083038186803b158015611b4357600080fd5b505af4158015611b57573d6000803e3d6000fd5b505050505050565b611b6761552c565b6000611b768260000135612260565b9050611ce5611ccb7ffb8f057542e7551386ead0b891a45f102af78c47f8cc58b4a919c7cfeccd0e1e8460000135858060200190611bb491906188fe565b604051611bc292919061849c565b6040518091039020866040016020810190611bdd9190617172565b878060600190611bed91906185e8565b604051611bfb92919061849c565b6040518091039020886080016020810190611c169190617172565b898060a00190611c2691906185e8565b604051611c3492919061849c565b6040518091039020600a60008b73ffffffffffffffffffffffffffffffffffffffff1673ffffffffffffffffffffffffffffffffffffffff1681526020019081526020016000206000815480929190611c8c9061867a565b919050558b60c00160600135604051602001611cb099989796959493929190618961565b604051602081830303815290604052805190602001206153ad565b828460c001803603810190611ce0919061880b565b6153eb565b611e118260000135838060200190611cfd91906188fe565b8080601f016020809104026020016040519081016040528093929190818152602001838380828437600081840152601f19601f82011690508083019250505050505050846040016020810190611d539190617172565b858060600190611d6391906185e8565b8080601f016020809104026020016040519081016040528093929190818152602001838380828437600081840152601f19601f82011690508083019250505050505050866080016020810190611db99190617172565b878060a00190611dc991906185e8565b8080601f016020809104026020016040519081016040528093929190818152602001838380828437600081840152601f19601f8201169050808301925050505050505061559b565b5050565b611e1d614fe7565b80601060008473ffffffffffffffffffffffffffffffffffffffff1673ffffffffffffffffffffffffffffffffffffffff16815260200190815260200160002060006101000a81548160ff0219169083151502179055508015158273ffffffffffffffffffffffffffffffffffffffff167f37872a053ef20cb52defb7c9ec20e1a87cb8dd5098ac9e76a144be263dfef57242604051611ebd91906170c5565b60405180910390a35050565b611ee4838383604051806020016040528060008152506136c5565b505050565b611ef1614ac9565b611efa81615647565b611f0381615693565b50565b6000611f1182614eb7565b9050919050565b6000611f2261138c565b8210611f63576040517f08c379a0000000000000000000000000000000000000000000000000000000008152600401611f5a90618a60565b60405180910390fd5b60088281548110611f7757611f76618a80565b5b90600052602060002001549050919050565b6000806002600084815260200190815260200160002060000160149054906101000a90046bffffffffffffffffffffffff1690506000816bffffffffffffffffffffffff16141561200f576040517f08c379a000000000000000000000000000000000000000000000000000000000815260040161200690618b21565b60405180910390fd5b806bffffffffffffffffffffffff16915050919050565b600060146000848152602001908152602001600020600083815260200190815260200160002060050160009054906101000a900473ffffffffffffffffffffffffffffffffffffffff16905092915050565b60006011600083815260200190815260200160002060009054906101000a900473ffffffffffffffffffffffffffffffffffffffff169050919050565b601760009054906101000a900473ffffffffffffffffffffffffffffffffffffffff1673ffffffffffffffffffffffffffffffffffffffff163373ffffffffffffffffffffffffffffffffffffffff16141580156121615750601860009054906101000a900473ffffffffffffffffffffffffffffffffffffffff1673ffffffffffffffffffffffffffffffffffffffff163373ffffffffffffffffffffffffffffffffffffffff1614155b15612198576040517fa020ab3200000000000000000000000000000000000000000000000000000000815260040160405180910390fd5b6121a181614d19565b50565b600060146000848152602001908152602001600020600083815260200190815260200160002060040160009054906101000a900473ffffffffffffffffffffffffffffffffffffffff16905092915050565b6000806000601460008681526020019081526020016000206000858152602001908152602001600020600001549050600060146000878152602001908152602001600020600086815260200190815260200160002060010154905081819350935050509250929050565b6000806002600084815260200190815260200160002060000160009054906101000a900473ffffffffffffffffffffffffffffffffffffffff169050600073ffffffffffffffffffffffffffffffffffffffff168173ffffffffffffffffffffffffffffffffffffffff16141561230c576040517f08c379a000000000000000000000000000000000000000000000000000000000815260040161230390618bb3565b60405180910390fd5b80915050919050565b61231d61552c565b61232a8160000135614b38565b61236481600001358260200135836040013584606001602081019061234f9190617172565b85806080019061235f91906185e8565b6156df565b50565b61236f614ac9565b61237884615788565b73__$4aae4b05f709fe952b396184b8760a821e$__636a7ecf1385858585601360008b8152602001908152602001600020600e6040518763ffffffff1660e01b81526004016123cc969594939291906188a2565b60006040518083038186803b1580156123e457600080fd5b505af41580156123f8573d6000803e3d6000fd5b5050505050505050565b60008073ffffffffffffffffffffffffffffffffffffffff168273ffffffffffffffffffffffffffffffffffffffff161415612473576040517f08c379a000000000000000000000000000000000000000000000000000000000815260040161246a90618c45565b60405180910390fd5b600360008373ffffffffffffffffffffffffffffffffffffffff1673ffffffffffffffffffffffffffffffffffffffff168152602001908152602001600020549050919050565b600073ffffffffffffffffffffffffffffffffffffffff168373ffffffffffffffffffffffffffffffffffffffff161415612521576040517f1fac5b7400000000000000000000000000000000000000000000000000000000815260040160405180910390fd5b600061252c83612260565b90506125f66125df7f49ecf333e5b8c95c40fdafc95c1ad136e8914a8fb55e9dc8bb01eaa83a2df9ad8686600a60008773ffffffffffffffffffffffffffffffffffffffff1673ffffffffffffffffffffffffffffffffffffffff16815260200190815260200160002060008154809291906125a79061867a565b9190505587606001356040516020016125c4959493929190618c65565b604051602081830303815290604052805190602001206153ad565b82848036038101906125f1919061880b565b6153eb565b6126008484614f2e565b50505050565b61260e614ac9565b73__$164457ce2b3966086073ea8c1f015deeb0$__63cd339bc433868686867f0000000000000000000000000000000000000000000000000000000000000000601460136040518963ffffffff1660e01b8152600401612675989796959493929190618cc6565b60006040518083038186803b15801561268d57600080fd5b505af41580156126a1573d6000803e3d6000fd5b5050505050505050565b600060146000878152602001908152602001600020600086815260200190815260200160002060050160009054906101000a900473ffffffffffffffffffffffffffffffffffffffff1690508073ffffffffffffffffffffffffffffffffffffffff163373ffffffffffffffffffffffffffffffffffffffff161461275c576040517fc6d1651b00000000000000000000000000000000000000000000000000000000815260040160405180910390fd5b8385877f68edb7ec2c37d21b3b72233960b487f2966f4ac82b7430d39f24d1f8d6f9910686864260405161279293929190618d3e565b60405180910390a4505050505050565b600073ffffffffffffffffffffffffffffffffffffffff168373ffffffffffffffffffffffffffffffffffffffff161415612809576040517f1fac5b7400000000000000000000000000000000000000000000000000000000815260040160405180910390fd5b6128d36128bc7f47ab88482c90e4bb94b82a947ae78fa91fb25de1469ab491f4c15b9a0a2677ee868686600a60008b73ffffffffffffffffffffffffffffffffffffffff1673ffffffffffffffffffffffffffffffffffffffff16815260200190815260200160002060008154809291906128839061867a565b9190505587606001356040516020016128a196959493929190618d75565b604051602081830303815290604052805190602001206153ad565b85838036038101906128ce919061880b565b6153eb565b6128de8484846157f8565b50505050565b6000601060008373ffffffffffffffffffffffffffffffffffffffff1673ffffffffffffffffffffffffffffffffffffffff16815260200190815260200160002060009054906101000a900460ff169050919050565b612942614ac9565b60008180604001906129549190618dd6565b905067ffffffffffffffff81111561296f5761296e617a11565b5b60405190808252806020026020018201604052801561299d5781602001602082028036833780820191505090505b50905060005b8280604001906129b39190618dd6565b9050811015612a35578280604001906129cc9190618dd6565b828181106129dd576129dc618a80565b5b90506020028101906129ef91906185e8565b6040516129fd92919061849c565b6040518091039020828281518110612a1857612a17618a80565b5b60200260200101818152505080612a2e9061867a565b90506129a3565b50612b84612b587ffb6b7f1cd1b38daf3822aff0abbe78124db5d62a4748bcff007c15ccd6d30bc5848060200190612a6d9190618e39565b604051602001612a7e929190618f08565b6040516020818303038152906040528051906020012084604051602001612aa59190618fd9565b60405160208183030381529060405280519060200120600a6000886000016020810190612ad29190617172565b73ffffffffffffffffffffffffffffffffffffffff1673ffffffffffffffffffffffffffffffffffffffff1681526020019081526020016000206000815480929190612b1d9061867a565b919050558760600160600135604051602001612b3d959493929190618ff0565b604051602081830303815290604052805190602001206153ad565b836000016020810190612b6b9190617172565b84606001803603810190612b7f919061880b565b6153eb565b73__$164457ce2b3966086073ea8c1f015deeb0$__63bccbaefd836000016020810190612bb19190617172565b848060200190612bc19190618e39565b868060400190612bd19190618dd6565b7f0000000000000000000000000000000000000000000000000000000000000000601360126040518963ffffffff1660e01b8152600401612c1998979695949392919061921b565b60006040518083038186803b158015612c3157600080fd5b505af4158015612c45573d6000803e3d6000fd5b505050505050565b612c5561552c565b6000612c648260000135612260565b9050612d7d612d637f64f4578fc098f96a2450fbe601cb8c5318ebeb2ff72d2031a36be1ff6932d5ee846000013585602001358660400135876060016020810190612caf9190617172565b888060800190612cbf91906185e8565b604051612ccd92919061849c565b6040518091039020600a60008a73ffffffffffffffffffffffffffffffffffffffff1673ffffffffffffffffffffffffffffffffffffffff1681526020019081526020016000206000815480929190612d259061867a565b919050558a60a00160600135604051602001612d4898979695949392919061928e565b604051602081830303815290604052805190602001206153ad565b828460a001803603810190612d78919061880b565b6153eb565b612db7826000013583602001358460400135856060016020810190612da29190617172565b868060800190612db291906185e8565b6156df565b5050565b6000601560008373ffffffffffffffffffffffffffffffffffffffff1673ffffffffffffffffffffffffffffffffffffffff168152602001908152602001600020549050919050565b606060018054612e1390618284565b80601f0160208091040260200160405190810160405280929190818152602001828054612e3f90618284565b8015612e8c5780601f10612e6157610100808354040283529160200191612e8c565b820191906000526020600020905b815481529060010190602001808311612e6f57829003601f168201915b5050505050905090565b612e9e61552c565b612eab8160000135614b38565b612fd78160000135828060200190612ec391906188fe565b8080601f016020809104026020016040519081016040528093929190818152602001838380828437600081840152601f19601f82011690508083019250505050505050836040016020810190612f199190617172565b848060600190612f2991906185e8565b8080601f016020809104026020016040519081016040528093929190818152602001838380828437600081840152601f19601f82011690508083019250505050505050856080016020810190612f7f9190617172565b868060a00190612f8f91906185e8565b8080601f016020809104026020016040519081016040528093929190818152602001838380828437600081840152601f19601f8201169050808301925050505050505061559b565b50565b612fe2614ac9565b6000612ff18260000135612260565b90506130ea6130d07f5b9860bd835e648945b22d053515bc1f53b7d9fab4b23b1b49db15722e945d14846000013585806020019061302f91906188fe565b60405161303d92919061849c565b6040518091039020600a60008773ffffffffffffffffffffffffffffffffffffffff1673ffffffffffffffffffffffffffffffffffffffff16815260200190815260200160002060008154809291906130959061867a565b9190505587604001606001356040516020016130b595949392919061930c565b604051602081830303815290604052805190602001206153ad565b82846040018036038101906130e5919061880b565b6153eb565b61314a826000013583806020019061310291906188fe565b8080601f016020809104026020016040519081016040528093929190818152602001838380828437600081840152601f19601f82011690508083019250505050505050614c15565b5050565b613156614f26565b73ffffffffffffffffffffffffffffffffffffffff168273ffffffffffffffffffffffffffffffffffffffff1614156131c4576040517f08c379a00000000000000000000000000000000000000000000000000000000081526004016131bb906193ab565b60405180910390fd5b6131d66131cf614f26565b83836157f8565b5050565b6131e261552c565b6131ef8160000135614b38565b613201816131fc9061958a565b6158f6565b50565b61320c614fe7565b80600e60008473ffffffffffffffffffffffffffffffffffffffff1673ffffffffffffffffffffffffffffffffffffffff16815260200190815260200160002060006101000a81548160ff0219169083151502179055508015158273ffffffffffffffffffffffffffffffffffffffff167f52c5b7889df9f12f84ec3da051e854e5876678370d8357959c23ef59dd6486df426040516132ac91906170c5565b60405180910390a35050565b60006013600083815260200190815260200160002060020160009054906101000a900473ffffffffffffffffffffffffffffffffffffffff169050919050565b613300614fe7565b61330981614dcf565b50565b6000600f60008373ffffffffffffffffffffffffffffffffffffffff1673ffffffffffffffffffffffffffffffffffffffff16815260200190815260200160002060009054906101000a900460ff169050919050565b6000600d60008373ffffffffffffffffffffffffffffffffffffffff1673ffffffffffffffffffffffffffffffffffffffff16815260200190815260200160002060009054906101000a900460ff169050919050565b6133c0614ac9565b6134e16134b57f7f9b4ea1fc678b4fda1611ac5cbd28f339e235d89b1540635e9b2e0223a3c1018360200135846040013585806060019061340191906185e8565b60405161340f92919061849c565b6040518091039020600a600088600001602081019061342e9190617172565b73ffffffffffffffffffffffffffffffffffffffff1673ffffffffffffffffffffffffffffffffffffffff16815260200190815260200160002060008154809291906134799061867a565b91905055876080016060013560405160200161349a9695949392919061959d565b604051602081830303815290604052805190602001206153ad565b8260000160208101906134c89190617172565b836080018036038101906134dc919061880b565b6153eb565b73__$164457ce2b3966086073ea8c1f015deeb0$__63cd339bc482600001602081019061350e9190617172565b8360200135846040013585806060019061352891906185e8565b7f0000000000000000000000000000000000000000000000000000000000000000601460136040518963ffffffff1660e01b8152600401613570989796959493929190618cc6565b60006040518083038186803b15801561358857600080fd5b505af415801561359c573d6000803e3d6000fd5b5050505050565b60606000806135b4858560146159c4565b509150915060146000838152602001908152602001600020600082815260200190815260200160002060020180546135eb90618284565b80601f016020809104026020016040519081016040528092919081815260200182805461361790618284565b80156136645780601f1061363957610100808354040283529160200191613664565b820191906000526020600020905b81548152906001019060200180831161364757829003601f168201915b50505050509250505092915050565b600060146000848152602001908152602001600020600083815260200190815260200160002060030160009054906101000a900473ffffffffffffffffffffffffffffffffffffffff16905092915050565b6136d66136d0614f26565b83615070565b613715576040517f08c379a000000000000000000000000000000000000000000000000000000000815260040161370c90618527565b60405180910390fd5b61372184848484615b49565b50505050565b61372f614ac9565b600061373e8260000135612260565b905061383761381d7fd8d76e8b2b26e1ebe72def13fb559a68561ef064055b0de01f955bc26e25d42f846000013585806020019061377c91906188fe565b60405161378a92919061849c565b6040518091039020600a60008773ffffffffffffffffffffffffffffffffffffffff1673ffffffffffffffffffffffffffffffffffffffff16815260200190815260200160002060008154809291906137e29061867a565b91905055876040016060013560405160200161380295949392919061930c565b604051602081830303815290604052805190602001206153ad565b8284604001803603810190613832919061880b565b6153eb565b613897826000013583806020019061384f91906188fe565b8080601f016020809104026020016040519081016040528093929190818152602001838380828437600081840152601f19601f82011690508083019250505050505050615ba5565b5050565b60006013600086815260200190815260200160002060020160009054906101000a900473ffffffffffffffffffffffffffffffffffffffff1690508073ffffffffffffffffffffffffffffffffffffffff163373ffffffffffffffffffffffffffffffffffffffff161461393b576040517fc8cf0baa00000000000000000000000000000000000000000000000000000000815260040160405180910390fd5b83857f4996ad2257e7db44908136c43128cc10ca988096f67dc6bb0bcee11d151368fb85854260405161397093929190618d3e565b60405180910390a35050505050565b613987614ac9565b60006139968260000135612260565b9050613a7c613a627f77ba3e9f5fa75343bbad1241fb539a0064de97694b47d463d1eb5c54aba11f0f84600001358560200160208101906139d79190617172565b600a60008773ffffffffffffffffffffffffffffffffffffffff1673ffffffffffffffffffffffffffffffffffffffff1681526020019081526020016000206000815480929190613a279061867a565b919050558760400160600135604051602001613a479594939291906195fe565b604051602081830303815290604052805190602001206153ad565b8284604001803603810190613a77919061880b565b6153eb565b613a9c8260000135836020016020810190613a979190617172565b615c0e565b5050565b613aa8614ac9565b613ab182615788565b613abb8282615c0e565b5050565b613ac7616a66565b613ad082614eb7565b613b0f576040517f08c379a0000000000000000000000000000000000000000000000000000000008152600401613b06906196c3565b60405180910390fd5b600260008381526020019081526020016000206040518060400160405290816000820160009054906101000a900473ffffffffffffffffffffffffffffffffffffffff1673ffffffffffffffffffffffffffffffffffffffff1673ffffffffffffffffffffffffffffffffffffffff1681526020016000820160149054906101000a90046bffffffffffffffffffffffff166bffffffffffffffffffffffff166bffffffffffffffffffffffff16815250509050919050565b613bd0614ac9565b613bd983614b38565b613c278383838080601f016020809104026020016040519081016040528093929190818152602001838380828437600081840152601f19601f82011690508083019250505050505050615ba5565b505050565b613c34616aa4565b6014600084815260200190815260200160002060008381526020019081526020016000206040518060c00160405290816000820154815260200160018201548152602001600282018054613c8790618284565b80601f0160208091040260200160405190810160405280929190818152602001828054613cb390618284565b8015613d005780601f10613cd557610100808354040283529160200191613d00565b820191906000526020600020905b815481529060010190602001808311613ce357829003601f168201915b505050505081526020016003820160009054906101000a900473ffffffffffffffffffffffffffffffffffffffff1673ffffffffffffffffffffffffffffffffffffffff1673ffffffffffffffffffffffffffffffffffffffff1681526020016004820160009054906101000a900473ffffffffffffffffffffffffffffffffffffffff1673ffffffffffffffffffffffffffffffffffffffff1673ffffffffffffffffffffffffffffffffffffffff1681526020016005820160009054906101000a900473ffffffffffffffffffffffffffffffffffffffff1673ffffffffffffffffffffffffffffffffffffffff1673ffffffffffffffffffffffffffffffffffffffff1681525050905092915050565b606060006013600084815260200190815260200160002060020160009054906101000a900473ffffffffffffffffffffffffffffffffffffffff16905073__$66ec7c3da5c997fb1606ee76d15a6a45d9$__633edea73c84600073ffffffffffffffffffffffffffffffffffffffff168473ffffffffffffffffffffffffffffffffffffffff1614613f13578373ffffffffffffffffffffffffffffffffffffffff166318160ddd6040518163ffffffff1660e01b8152600401602060405180830381865afa158015613eea573d6000803e3d6000fd5b505050506040513d601f19601f82011682018060405250810190613f0e91906196f8565b613f16565b60005b613f1f87612260565b60136000898152602001908152602001600020600301601360008a81526020019081526020016000206004016040518663ffffffff1660e01b8152600401613f6b9594939291906197cb565b600060405180830381865af4158015613f88573d6000803e3d6000fd5b505050506040513d6000823e3d601f19601f82011682018060405250810190613fb1919061989c565b915050919050565b60006013600083815260200190815260200160002060010160009054906101000a900473ffffffffffffffffffffffffffffffffffffffff169050919050565b614001614ac9565b6141086140dc7e198a25e19615d82f53977db0fc1ee7f3701b0fdf1299a971cf997545879c0483600001602081019061403a9190617172565b8460200135600a60008760000160208101906140569190617172565b73ffffffffffffffffffffffffffffffffffffffff1673ffffffffffffffffffffffffffffffffffffffff16815260200190815260200160002060008154809291906140a19061867a565b9190505586604001606001356040516020016140c1959493929190618c65565b604051602081830303815290604052805190602001206153ad565b8260000160208101906140ef9190617172565b83604001803603810190614103919061880b565b6153eb565b61412881600001602081019061411e9190617172565b8260200135615cb3565b50565b614133614ac9565b61413d8282615dc1565b61414682615693565b5050565b6000600560008473ffffffffffffffffffffffffffffffffffffffff1673ffffffffffffffffffffffffffffffffffffffff16815260200190815260200160002060008373ffffffffffffffffffffffffffffffffffffffff1673ffffffffffffffffffffffffffffffffffffffff16815260200190815260200160002060009054906101000a900460ff16905092915050565b606060136000838152602001908152602001600020600301805461420190618284565b80601f016020809104026020016040519081016040528092919081815260200182805461422d90618284565b801561427a5780601f1061424f5761010080835404028352916020019161427a565b820191906000526020600020905b81548152906001019060200180831161425d57829003601f168201915b50505050509050919050565b61428e61552c565b600061429d8260000135612260565b905061441a6143ff7fb30910150df56294e05b2d03e181803697a2b935abb1b9bdddde9310f618fe9b84600001358580602001906142db91906188fe565b6040516142e992919061849c565b60405180910390208660400135876060013588608001602081019061430e9190617172565b898060a0019061431e91906185e8565b60405161432c92919061849c565b60405180910390208a60c00160208101906143479190617172565b8b8060e0019061435791906185e8565b60405161436592919061849c565b6040518091039020600a60008d73ffffffffffffffffffffffffffffffffffffffff1673ffffffffffffffffffffffffffffffffffffffff16815260200190815260200160002060008154809291906143bd9061867a565b919050558d61010001606001356040516020016143e49b9a999897969594939291906198e5565b604051602081830303815290604052805190602001206153ad565b828461010001803603810190614415919061880b565b6153eb565b6145ae6040518061010001604052808460000135815260200184806020019061444391906188fe565b8080601f016020809104026020016040519081016040528093929190818152602001838380828437600081840152601f19601f82011690508083019250505050505050815260200184604001358152602001846060013581526020018460800160208101906144b29190617172565b73ffffffffffffffffffffffffffffffffffffffff168152602001848060a001906144dd91906185e8565b8080601f016020809104026020016040519081016040528093929190818152602001838380828437600081840152601f19601f8201169050808301925050505050505081526020018460c00160208101906145389190617172565b73ffffffffffffffffffffffffffffffffffffffff168152602001848060e0019061456391906185e8565b8080601f016020809104026020016040519081016040528093929190818152602001838380828437600081840152601f19601f820116905080830192505050505050508152506158f6565b5050565b60006145bc615ea2565b905090565b6145c9616b1c565b601360008381526020019081526020016000206040518060c0016040529081600082015481526020016001820160009054906101000a900473ffffffffffffffffffffffffffffffffffffffff1673ffffffffffffffffffffffffffffffffffffffff1673ffffffffffffffffffffffffffffffffffffffff1681526020016002820160009054906101000a900473ffffffffffffffffffffffffffffffffffffffff1673ffffffffffffffffffffffffffffffffffffffff1673ffffffffffffffffffffffffffffffffffffffff1681526020016003820180546146ad90618284565b80601f01602080910402602001604051908101604052809291908181526020018280546146d990618284565b80156147265780601f106146fb57610100808354040283529160200191614726565b820191906000526020600020905b81548152906001019060200180831161470957829003601f168201915b5050505050815260200160048201805461473f90618284565b80601f016020809104026020016040519081016040528092919081815260200182805461476b90618284565b80156147b85780601f1061478d576101008083540402835291602001916147b8565b820191906000526020600020905b81548152906001019060200180831161479b57829003601f168201915b505050505081526020016005820180546147d190618284565b80601f01602080910402602001604051908101604052809291908181526020018280546147fd90618284565b801561484a5780601f1061481f5761010080835404028352916020019161484a565b820191906000526020600020905b81548152906001019060200180831161482d57829003601f168201915b5050505050815250509050919050565b614862614ac9565b61486c3382615cb3565b50565b600a6020528060005260406000206000915090505481565b61488f614ac9565b73__$164457ce2b3966086073ea8c1f015deeb0$__63bccbaefd33868686867f0000000000000000000000000000000000000000000000000000000000000000601360126040518963ffffffff1660e01b81526004016148f698979695949392919061921b565b60006040518083038186803b15801561490e57600080fd5b505af4158015614922573d6000803e3d6000fd5b5050505050505050565b614934614ac9565b61493c615f26565b600060166000815461494d9061867a565b919050819055905061497182600001602081019061496b9190617172565b82615fab565b73__$4aae4b05f709fe952b396184b8760a821e$__637ecf4cde838360126013600e6040518663ffffffff1660e01b81526004016149b3959493929190619b2d565b60006040518083038186803b1580156149cb57600080fd5b505af41580156149df573d6000803e3d6000fd5b505050505050565b60007f80ac58cd000000000000000000000000000000000000000000000000000000007bffffffffffffffffffffffffffffffffffffffffffffffffffffffff1916827bffffffffffffffffffffffffffffffffffffffffffffffffffffffff19161480614ab257507f5b5e139f000000000000000000000000000000000000000000000000000000007bffffffffffffffffffffffffffffffffffffffffffffffffffffffff1916827bffffffffffffffffffffffffffffffffffffffffffffffffffffffff1916145b80614ac25750614ac1826161c1565b5b9050919050565b600280811115614adc57614adb6170e0565b5b600c60009054906101000a900460ff166002811115614afe57614afd6170e0565b5b1415614b36576040517f9e87fac800000000000000000000000000000000000000000000000000000000815260040160405180910390fd5b565b614b4181612260565b73ffffffffffffffffffffffffffffffffffffffff163373ffffffffffffffffffffffffffffffffffffffff1614158015614bdb57506011600082815260200190815260200160002060009054906101000a900473ffffffffffffffffffffffffffffffffffffffff1673ffffffffffffffffffffffffffffffffffffffff163373ffffffffffffffffffffffffffffffffffffffff1614155b15614c12576040517ff33ac98f00000000000000000000000000000000000000000000000000000000815260040160405180910390fd5b50565b61177061ffff1681511115614c56576040517f781548c700000000000000000000000000000000000000000000000000000000815260040160405180910390fd5b80601360008481526020019081526020016000206004019080519060200190614c80929190616b7e565b50817fd5a5879cad33c830cc1432c1850107029a09c80c60e9bce1ecd08d24880bd46c8242604051614cb3929190619b87565b60405180910390a25050565b60006001905090565b614cd48484848461622b565b7f414cd0b34676984f09a5f76ce9718d4062e50283abe0e7e274a9a5b4e0c99c308484848442604051614d0b959493929190619be4565b60405180910390a150505050565b6000600c60009054906101000a900460ff16905081600c60006101000a81548160ff02191690836002811115614d5257614d516170e0565b5b0217905550816002811115614d6a57614d696170e0565b5b816002811115614d7d57614d7c6170e0565b5b3373ffffffffffffffffffffffffffffffffffffffff167fa2f9a1499fc1f9b7796d21fe5761290ccb7e0ef6ccf35fa58b668f304a62a1ca42604051614dc391906170c5565b60405180910390a45050565b6000601760009054906101000a900473ffffffffffffffffffffffffffffffffffffffff16905081601760006101000a81548173ffffffffffffffffffffffffffffffffffffffff021916908373ffffffffffffffffffffffffffffffffffffffff1602179055508173ffffffffffffffffffffffffffffffffffffffff168173ffffffffffffffffffffffffffffffffffffffff163373ffffffffffffffffffffffffffffffffffffffff167fe552a55455b740845a5c07ed445d1724142fc997b389835495a29b30cddc1ccd42604051614eab91906170c5565b60405180910390a45050565b60008073ffffffffffffffffffffffffffffffffffffffff166002600084815260200190815260200160002060000160009054906101000a900473ffffffffffffffffffffffffffffffffffffffff1673ffffffffffffffffffffffffffffffffffffffff1614159050919050565b600033905090565b816004600083815260200190815260200160002060006101000a81548173ffffffffffffffffffffffffffffffffffffffff021916908373ffffffffffffffffffffffffffffffffffffffff160217905550808273ffffffffffffffffffffffffffffffffffffffff16614fa183612260565b73ffffffffffffffffffffffffffffffffffffffff167f8c5be1e5ebec7d5bd14f71427d1e84f3dd0314c0f7b2291e5b200ac8c7c3b92560405160405180910390a45050565b601760009054906101000a900473ffffffffffffffffffffffffffffffffffffffff1673ffffffffffffffffffffffffffffffffffffffff163373ffffffffffffffffffffffffffffffffffffffff161461506e576040517fb56f932c00000000000000000000000000000000000000000000000000000000815260040160405180910390fd5b565b600061507b82614eb7565b6150ba576040517f08c379a00000000000000000000000000000000000000000000000000000000081526004016150b190619c9f565b60405180910390fd5b60006150c583612260565b90508073ffffffffffffffffffffffffffffffffffffffff168473ffffffffffffffffffffffffffffffffffffffff16148061513457508373ffffffffffffffffffffffffffffffffffffffff1661511c846111ef565b73ffffffffffffffffffffffffffffffffffffffff16145b806151455750615144818561414a565b5b91505092915050565b8273ffffffffffffffffffffffffffffffffffffffff1661516e82612260565b73ffffffffffffffffffffffffffffffffffffffff16146151c4576040517f08c379a00000000000000000000000000000000000000000000000000000000081526004016151bb90619d31565b60405180910390fd5b600073ffffffffffffffffffffffffffffffffffffffff168273ffffffffffffffffffffffffffffffffffffffff161415615234576040517f08c379a000000000000000000000000000000000000000000000000000000000815260040161522b90619dc3565b60405180910390fd5b61523f838383616255565b61524a600082614f2e565b6001600360008573ffffffffffffffffffffffffffffffffffffffff1673ffffffffffffffffffffffffffffffffffffffff168152602001908152602001600020600082825461529a9190619de3565b925050819055506001600360008473ffffffffffffffffffffffffffffffffffffffff1673ffffffffffffffffffffffffffffffffffffffff16815260200190815260200160002060008282546152f19190619e17565b92505081905550816002600083815260200190815260200160002060000160006101000a81548173ffffffffffffffffffffffffffffffffffffffff021916908373ffffffffffffffffffffffffffffffffffffffff160217905550808273ffffffffffffffffffffffffffffffffffffffff168473ffffffffffffffffffffffffffffffffffffffff167fddf252ad1be2c89b69c2b068fc378daa952ba7f163c4a11628f55a4df523b3ef60405160405180910390a4505050565b6000806153b8615ea2565b836040516020016153ca929190619ee5565b60405160208183030381529060405280519060200120905080915050919050565b4281606001511015615429576040517f0819bdcd00000000000000000000000000000000000000000000000000000000815260040160405180910390fd5b60006001848360000151846020015185604001516040516000815260200160405260405161545a9493929190619f2b565b6020604051602081039080840390855afa15801561547c573d6000803e3d6000fd5b505050602060405103519050600073ffffffffffffffffffffffffffffffffffffffff168173ffffffffffffffffffffffffffffffffffffffff1614806154ef57508273ffffffffffffffffffffffffffffffffffffffff168173ffffffffffffffffffffffffffffffffffffffff1614155b15615526576040517f37e8456b00000000000000000000000000000000000000000000000000000000815260040160405180910390fd5b50505050565b600060028111156155405761553f6170e0565b5b600c60009054906101000a900460ff166002811115615562576155616170e0565b5b14615599576040517f79c951d800000000000000000000000000000000000000000000000000000000815260040160405180910390fd5b565b73__$4aae4b05f709fe952b396184b8760a821e$__639dbf0510878787878787601360008f8152602001908152602001600020600001600081546155de9061867a565b9190508190556014600f60106040518b63ffffffff1660e01b815260040161560f9a99989796959493929190619fed565b60006040518083038186803b15801561562757600080fd5b505af415801561563b573d6000803e3d6000fd5b50505050505050505050565b6156513382615070565b615687576040517fdb1453ce00000000000000000000000000000000000000000000000000000000815260040160405180910390fd5b61569081616365565b50565b6000601360008381526020019081526020016000206003016040516156b8919061a132565b60405180910390209050600060126000838152602001908152602001600020819055505050565b73__$4aae4b05f709fe952b396184b8760a821e$__638588c2ff878787878787601360008f8152602001908152602001600020600001600081546157229061867a565b919050819055601460106040518a63ffffffff1660e01b81526004016157509998979695949392919061a149565b60006040518083038186803b15801561576857600080fd5b505af415801561577c573d6000803e3d6000fd5b50505050505050505050565b61579181612260565b73ffffffffffffffffffffffffffffffffffffffff163373ffffffffffffffffffffffffffffffffffffffff16146157f5576040517ff194fae500000000000000000000000000000000000000000000000000000000815260040160405180910390fd5b50565b80600560008573ffffffffffffffffffffffffffffffffffffffff1673ffffffffffffffffffffffffffffffffffffffff16815260200190815260200160002060008473ffffffffffffffffffffffffffffffffffffffff1673ffffffffffffffffffffffffffffffffffffffff16815260200190815260200160002060006101000a81548160ff0219169083151502179055508173ffffffffffffffffffffffffffffffffffffffff168373ffffffffffffffffffffffffffffffffffffffff167f17307eab39ab6107e8899845ad3d59bd9653f200f220920489ca2b5937696c31836040516158e99190616d5b565b60405180910390a3505050565b73__$4aae4b05f709fe952b396184b8760a821e$__63e63aa93e8260016013600086600001518152602001908152602001600020600001546159389190619e17565b60136014600f60106040518763ffffffff1660e01b81526004016159619695949392919061a30f565b60006040518083038186803b15801561597957600080fd5b505af415801561598d573d6000803e3d6000fd5b50505050601360008260000151815260200190815260200160002060000160008154809291906159bc9061867a565b919050555050565b600080600080846000888152602001908152602001600020600087815260200190815260200160002060040160009054906101000a900473ffffffffffffffffffffffffffffffffffffffff169050600073ffffffffffffffffffffffffffffffffffffffff168173ffffffffffffffffffffffffffffffffffffffff1614615a565786868293509350935050615b40565b600085600089815260200190815260200160002060008881526020019081526020016000206000015490506000811415615abc576040517fa43d2a7100000000000000000000000000000000000000000000000000000000815260040160405180910390fd5b60008660008a815260200190815260200160002060008981526020019081526020016000206001015490506000876000848152602001908152602001600020600083815260200190815260200160002060040160009054906101000a900473ffffffffffffffffffffffffffffffffffffffff169050828282965096509650505050505b93509350939050565b615b5484848461514e565b615b608484848461649c565b615b9f576040517f08c379a0000000000000000000000000000000000000000000000000000000008152600401615b969061a3e9565b60405180910390fd5b50505050565b80601360008481526020019081526020016000206005019080519060200190615bcf929190616b7e565b50817fe82886e1af6fcab5caef13815b22f51384e970c367a785f265d13860a7d6966d8242604051615c02929190619b87565b60405180910390a25050565b806011600084815260200190815260200160002060006101000a81548173ffffffffffffffffffffffffffffffffffffffff021916908373ffffffffffffffffffffffffffffffffffffffff1602179055508073ffffffffffffffffffffffffffffffffffffffff16827f22baaec4952f35f59e45bd2ddb287e1ccc6d319375770c09428eb8f8d604e06542604051615ca791906170c5565b60405180910390a35050565b6000811115615d2a57615cc581612260565b73ffffffffffffffffffffffffffffffffffffffff168273ffffffffffffffffffffffffffffffffffffffff1614615d29576040517ff194fae500000000000000000000000000000000000000000000000000000000815260040160405180910390fd5b5b80601560008473ffffffffffffffffffffffffffffffffffffffff1673ffffffffffffffffffffffffffffffffffffffff16815260200190815260200160002081905550808273ffffffffffffffffffffffffffffffffffffffff167f0afd7c479e8bc7dcdb856b3cc27d2332dfe1f018fde574ea124919ddcae8a93342604051615db591906170c5565b60405180910390a35050565b6000615dcc83612260565b9050615e94615e7d7f108ccda6d7331b00561a3eea66a2ae331622356585681c62731e4a01aae2261a85600a60008673ffffffffffffffffffffffffffffffffffffffff1673ffffffffffffffffffffffffffffffffffffffff1681526020019081526020016000206000815480929190615e469061867a565b919050558660600135604051602001615e62949392919061a409565b604051602081830303815290604052805190602001206153ad565b8284803603810190615e8f919061880b565b6153eb565b615e9d83616365565b505050565b60007f8b73c3c69bb8fe3d512ecc4cf759cc79239f7b179b0ffacaa9a75d522b39400f615ecd611062565b805190602001207fc89efdaa54c0f20c7adf612882df0950f5a951637e0307cdcb4c672f298b8bc64630604051602001615f0b95949392919061a44e565b60405160208183030381529060405280519060200120905090565b600d60003373ffffffffffffffffffffffffffffffffffffffff1673ffffffffffffffffffffffffffffffffffffffff16815260200190815260200160002060009054906101000a900460ff16615fa9576040517f561a858700000000000000000000000000000000000000000000000000000000815260040160405180910390fd5b565b600073ffffffffffffffffffffffffffffffffffffffff168273ffffffffffffffffffffffffffffffffffffffff16141561601b576040517f08c379a00000000000000000000000000000000000000000000000000000000081526004016160129061a4ed565b60405180910390fd5b61602481614eb7565b15616064576040517f08c379a000000000000000000000000000000000000000000000000000000000815260040161605b9061a559565b60405180910390fd5b61607060008383616255565b6001600360008473ffffffffffffffffffffffffffffffffffffffff1673ffffffffffffffffffffffffffffffffffffffff16815260200190815260200160002060008282546160c09190619e17565b92505081905550816002600083815260200190815260200160002060000160006101000a81548173ffffffffffffffffffffffffffffffffffffffff021916908373ffffffffffffffffffffffffffffffffffffffff160217905550426002600083815260200190815260200160002060000160146101000a8154816bffffffffffffffffffffffff02191690836bffffffffffffffffffffffff160217905550808273ffffffffffffffffffffffffffffffffffffffff16600073ffffffffffffffffffffffffffffffffffffffff167fddf252ad1be2c89b69c2b068fc378daa952ba7f163c4a11628f55a4df523b3ef60405160405180910390a45050565b60007f01ffc9a7000000000000000000000000000000000000000000000000000000007bffffffffffffffffffffffffffffffffffffffffffffffffffffffff1916827bffffffffffffffffffffffffffffffffffffffffffffffffffffffff1916149050919050565b83836000919061623c929190616c04565b5081816001919061624e929190616c04565b5050505050565b600073ffffffffffffffffffffffffffffffffffffffff166011600083815260200190815260200160002060009054906101000a900473ffffffffffffffffffffffffffffffffffffffff1673ffffffffffffffffffffffffffffffffffffffff16146162c8576162c7816000615c0e565b5b80601560008573ffffffffffffffffffffffffffffffffffffffff1673ffffffffffffffffffffffffffffffffffffffff168152602001908152602001600020541415616355576000601560008573ffffffffffffffffffffffffffffffffffffffff1673ffffffffffffffffffffffffffffffffffffffff168152602001908152602001600020819055505b616360838383616624565b505050565b600061637082612260565b905061637e81600084616255565b616389600083614f2e565b6001600360008373ffffffffffffffffffffffffffffffffffffffff1673ffffffffffffffffffffffffffffffffffffffff16815260200190815260200160002060008282546163d99190619de3565b9250508190555060026000838152602001908152602001600020600080820160006101000a81549073ffffffffffffffffffffffffffffffffffffffff02191690556000820160146101000a8154906bffffffffffffffffffffffff0219169055505081600073ffffffffffffffffffffffffffffffffffffffff168273ffffffffffffffffffffffffffffffffffffffff167fddf252ad1be2c89b69c2b068fc378daa952ba7f163c4a11628f55a4df523b3ef60405160405180910390a45050565b60006164bd8473ffffffffffffffffffffffffffffffffffffffff16616738565b15616617578373ffffffffffffffffffffffffffffffffffffffff1663150b7a026164e6614f26565b8786866040518563ffffffff1660e01b8152600401616508949392919061a5c3565b6020604051808303816000875af192505050801561654457506040513d601f19601f82011682018060405250810190616541919061a624565b60015b6165c7573d8060008114616574576040519150601f19603f3d011682016040523d82523d6000602084013e616579565b606091505b506000815114156165bf576040517f08c379a00000000000000000000000000000000000000000000000000000000081526004016165b69061a3e9565b60405180910390fd5b805181602001fd5b63150b7a0260e01b7bffffffffffffffffffffffffffffffffffffffffffffffffffffffff1916817bffffffffffffffffffffffffffffffffffffffffffffffffffffffff19161491505061661c565b600190505b949350505050565b61662f83838361675b565b600073ffffffffffffffffffffffffffffffffffffffff168373ffffffffffffffffffffffffffffffffffffffff1614156166725761666d81616760565b6166b1565b8173ffffffffffffffffffffffffffffffffffffffff168373ffffffffffffffffffffffffffffffffffffffff16146166b0576166af83826167a9565b5b5b600073ffffffffffffffffffffffffffffffffffffffff168273ffffffffffffffffffffffffffffffffffffffff1614156166f4576166ef81616916565b616733565b8273ffffffffffffffffffffffffffffffffffffffff168273ffffffffffffffffffffffffffffffffffffffff16146167325761673182826169e7565b5b5b505050565b6000808273ffffffffffffffffffffffffffffffffffffffff163b119050919050565b505050565b6008805490506009600083815260200190815260200160002081905550600881908060018154018082558091505060019003906000526020600020016000909190919091505550565b600060016167b684612402565b6167c09190619de3565b90506000600760008481526020019081526020016000205490508181146168a5576000600660008673ffffffffffffffffffffffffffffffffffffffff1673ffffffffffffffffffffffffffffffffffffffff168152602001908152602001600020600084815260200190815260200160002054905080600660008773ffffffffffffffffffffffffffffffffffffffff1673ffffffffffffffffffffffffffffffffffffffff168152602001908152602001600020600084815260200190815260200160002081905550816007600083815260200190815260200160002081905550505b6007600084815260200190815260200160002060009055600660008573ffffffffffffffffffffffffffffffffffffffff1673ffffffffffffffffffffffffffffffffffffffff16815260200190815260200160002060008381526020019081526020016000206000905550505050565b6000600160088054905061692a9190619de3565b905060006009600084815260200190815260200160002054905060006008838154811061695a57616959618a80565b5b90600052602060002001549050806008838154811061697c5761697b618a80565b5b9060005260206000200181905550816009600083815260200190815260200160002081905550600960008581526020019081526020016000206000905560088054806169cb576169ca61a651565b5b6001900381819060005260206000200160009055905550505050565b60006169f283612402565b905081600660008573ffffffffffffffffffffffffffffffffffffffff1673ffffffffffffffffffffffffffffffffffffffff168152602001908152602001600020600083815260200190815260200160002081905550806007600084815260200190815260200160002081905550505050565b6040518060400160405280600073ffffffffffffffffffffffffffffffffffffffff16815260200160006bffffffffffffffffffffffff1681525090565b6040518060c00160405280600081526020016000815260200160608152602001600073ffffffffffffffffffffffffffffffffffffffff168152602001600073ffffffffffffffffffffffffffffffffffffffff168152602001600073ffffffffffffffffffffffffffffffffffffffff1681525090565b6040518060c0016040528060008152602001600073ffffffffffffffffffffffffffffffffffffffff168152602001600073ffffffffffffffffffffffffffffffffffffffff1681526020016060815260200160608152602001606081525090565b828054616b8a90618284565b90600052602060002090601f016020900481019282616bac5760008555616bf3565b82601f10616bc557805160ff1916838001178555616bf3565b82800160010185558215616bf3579182015b82811115616bf2578251825591602001919060010190616bd7565b5b509050616c009190616c8a565b5090565b828054616c1090618284565b90600052602060002090601f016020900481019282616c325760008555616c79565b82601f10616c4b57803560ff1916838001178555616c79565b82800160010185558215616c79579182015b82811115616c78578235825591602001919060010190616c5d565b5b509050616c869190616c8a565b5090565b5b80821115616ca3576000816000905550600101616c8b565b5090565b6000604051905090565b600080fd5b600080fd5b60007fffffffff0000000000000000000000000000000000000000000000000000000082169050919050565b616cf081616cbb565b8114616cfb57600080fd5b50565b600081359050616d0d81616ce7565b92915050565b600060208284031215616d2957616d28616cb1565b5b6000616d3784828501616cfe565b91505092915050565b60008115159050919050565b616d5581616d40565b82525050565b6000602082019050616d706000830184616d4c565b92915050565b6000819050919050565b616d8981616d76565b8114616d9457600080fd5b50565b600081359050616da681616d80565b92915050565b600080fd5b600080fd5b600080fd5b60008083601f840112616dd157616dd0616dac565b5b8235905067ffffffffffffffff811115616dee57616ded616db1565b5b602083019150836001820283011115616e0a57616e09616db6565b5b9250929050565b600080600060408486031215616e2a57616e29616cb1565b5b6000616e3886828701616d97565b935050602084013567ffffffffffffffff811115616e5957616e58616cb6565b5b616e6586828701616dbb565b92509250509250925092565b600081519050919050565b600082825260208201905092915050565b60005b83811015616eab578082015181840152602081019050616e90565b83811115616eba576000848401525b50505050565b6000601f19601f8301169050919050565b6000616edc82616e71565b616ee68185616e7c565b9350616ef6818560208601616e8d565b616eff81616ec0565b840191505092915050565b60006020820190508181036000830152616f248184616ed1565b905092915050565b600073ffffffffffffffffffffffffffffffffffffffff82169050919050565b6000616f5782616f2c565b9050919050565b616f6781616f4c565b8114616f7257600080fd5b50565b600081359050616f8481616f5e565b92915050565b600080600080600060608688031215616fa657616fa5616cb1565b5b600086013567ffffffffffffffff811115616fc457616fc3616cb6565b5b616fd088828901616dbb565b9550955050602086013567ffffffffffffffff811115616ff357616ff2616cb6565b5b616fff88828901616dbb565b9350935050604061701288828901616f75565b9150509295509295909350565b60006020828403121561703557617034616cb1565b5b600061704384828501616d97565b91505092915050565b61705581616f4c565b82525050565b6000602082019050617070600083018461704c565b92915050565b6000806040838503121561708d5761708c616cb1565b5b600061709b85828601616f75565b92505060206170ac85828601616d97565b9150509250929050565b6170bf81616d76565b82525050565b60006020820190506170da60008301846170b6565b92915050565b7f4e487b7100000000000000000000000000000000000000000000000000000000600052602160045260246000fd5b600381106171205761711f6170e0565b5b50565b60008190506171318261710f565b919050565b600061714182617123565b9050919050565b61715181617136565b82525050565b600060208201905061716c6000830184617148565b92915050565b60006020828403121561718857617187616cb1565b5b600061719684828501616f75565b91505092915050565b6171a881616d40565b81146171b357600080fd5b50565b6000813590506171c58161719f565b92915050565b600080604083850312156171e2576171e1616cb1565b5b60006171f085828601616f75565b9250506020617201858286016171b6565b9150509250929050565b6000806020838503121561722257617221616cb1565b5b600083013567ffffffffffffffff8111156172405761723f616cb6565b5b61724c85828601616dbb565b92509250509250929050565b60008060006060848603121561727157617270616cb1565b5b600061727f86828701616f75565b935050602061729086828701616f75565b92505060406172a186828701616d97565b9150509250925092565b600080604083850312156172c2576172c1616cb1565b5b60006172d085828601616d97565b92505060206172e185828601616d97565b9150509250929050565b600481106172fc576172fb6170e0565b5b50565b600081905061730d826172eb565b919050565b600061731d826172ff565b9050919050565b61732d81617312565b82525050565b60006020820190506173486000830184617324565b92915050565b600080fd5b600060e082840312156173695761736861734e565b5b81905092915050565b60006020828403121561738857617387616cb1565b5b600082013567ffffffffffffffff8111156173a6576173a5616cb6565b5b6173b284828501617353565b91505092915050565b600061014082840312156173d2576173d161734e565b5b81905092915050565b6000602082840312156173f1576173f0616cb1565b5b600082013567ffffffffffffffff81111561740f5761740e616cb6565b5b61741b848285016173bb565b91505092915050565b6003811061743157600080fd5b50565b60008135905061744381617424565b92915050565b60006020828403121561745f5761745e616cb1565b5b600061746d84828501617434565b91505092915050565b600060408201905061748b60008301856170b6565b61749860208301846170b6565b9392505050565b600060a082840312156174b5576174b461734e565b5b81905092915050565b6000602082840312156174d4576174d3616cb1565b5b600082013567ffffffffffffffff8111156174f2576174f1616cb6565b5b6174fe8482850161749f565b91505092915050565b60008083601f84011261751d5761751c616dac565b5b8235905067ffffffffffffffff81111561753a57617539616db1565b5b60208301915083600182028301111561755657617555616db6565b5b9250929050565b6000806000806060858703121561757757617576616cb1565b5b600061758587828801616d97565b945050602061759687828801616f75565b935050604085013567ffffffffffffffff8111156175b7576175b6616cb6565b5b6175c387828801617507565b925092505092959194509250565b6000608082840312156175e7576175e661734e565b5b81905092915050565b600080600060c0848603121561760957617608616cb1565b5b600061761786828701616f75565b935050602061762886828701616d97565b9250506040617639868287016175d1565b9150509250925092565b6000806000806060858703121561765d5761765c616cb1565b5b600061766b87828801616d97565b945050602061767c87828801616d97565b935050604085013567ffffffffffffffff81111561769d5761769c616cb6565b5b6176a987828801617507565b925092505092959194509250565b600080600080600060a086880312156176d3576176d2616cb1565b5b60006176e188828901616d97565b95505060206176f288828901616d97565b945050604061770388828901616d97565b935050606061771488828901616f75565b925050608061772588828901616f75565b9150509295509295909350565b60008060008060e0858703121561774c5761774b616cb1565b5b600061775a87828801616f75565b945050602061776b87828801616f75565b935050604061777c878288016171b6565b925050606061778d878288016175d1565b91505092959194509250565b600060e082840312156177af576177ae61734e565b5b81905092915050565b6000602082840312156177ce576177cd616cb1565b5b600082013567ffffffffffffffff8111156177ec576177eb616cb6565b5b6177f884828501617799565b91505092915050565b600061012082840312156178185761781761734e565b5b81905092915050565b60006020828403121561783757617836616cb1565b5b600082013567ffffffffffffffff81111561785557617854616cb6565b5b61786184828501617801565b91505092915050565b600060c082840312156178805761787f61734e565b5b81905092915050565b60006020828403121561789f5761789e616cb1565b5b600082013567ffffffffffffffff8111156178bd576178bc616cb6565b5b6178c98482850161786a565b91505092915050565b600060c082840312156178e8576178e761734e565b5b81905092915050565b60006020828403121561790757617906616cb1565b5b600082013567ffffffffffffffff81111561792557617924616cb6565b5b617931848285016178d2565b91505092915050565b600061010082840312156179515761795061734e565b5b81905092915050565b6000602082840312156179705761796f616cb1565b5b600082013567ffffffffffffffff81111561798e5761798d616cb6565b5b61799a8482850161793a565b91505092915050565b600061010082840312156179ba576179b961734e565b5b81905092915050565b6000602082840312156179d9576179d8616cb1565b5b600082013567ffffffffffffffff8111156179f7576179f6616cb6565b5b617a03848285016179a3565b91505092915050565b600080fd5b7f4e487b7100000000000000000000000000000000000000000000000000000000600052604160045260246000fd5b617a4982616ec0565b810181811067ffffffffffffffff82111715617a6857617a67617a11565b5b80604052505050565b6000617a7b616ca7565b9050617a878282617a40565b919050565b600067ffffffffffffffff821115617aa757617aa6617a11565b5b617ab082616ec0565b9050602081019050919050565b82818337600083830152505050565b6000617adf617ada84617a8c565b617a71565b905082815260208101848484011115617afb57617afa617a0c565b5b617b06848285617abd565b509392505050565b600082601f830112617b2357617b22616dac565b5b8135617b33848260208601617acc565b91505092915050565b60008060008060808587031215617b5657617b55616cb1565b5b6000617b6487828801616f75565b9450506020617b7587828801616f75565b9350506040617b8687828801616d97565b925050606085013567ffffffffffffffff811115617ba757617ba6616cb6565b5b617bb387828801617b0e565b91505092959194509250565b600060c08284031215617bd557617bd461734e565b5b81905092915050565b600060208284031215617bf457617bf3616cb1565b5b600082013567ffffffffffffffff811115617c1257617c11616cb6565b5b617c1e84828501617bbf565b91505092915050565b60008060008060808587031215617c4157617c40616cb1565b5b6000617c4f87828801616d97565b9450506020617c6087828801616d97565b9350506040617c7187828801616f75565b9250506060617c8287828801616f75565b91505092959194509250565b600060c08284031215617ca457617ca361734e565b5b81905092915050565b600060c08284031215617cc357617cc2616cb1565b5b6000617cd184828501617c8e565b91505092915050565b60008060408385031215617cf157617cf0616cb1565b5b6000617cff85828601616d97565b9250506020617d1085828601616f75565b9150509250929050565b617d2381616f4c565b82525050565b60006bffffffffffffffffffffffff82169050919050565b617d4a81617d29565b82525050565b604082016000820151617d666000850182617d1a565b506020820151617d796020850182617d41565b50505050565b6000604082019050617d946000830184617d50565b92915050565b617da381616d76565b82525050565b600082825260208201905092915050565b6000617dc582616e71565b617dcf8185617da9565b9350617ddf818560208601616e8d565b617de881616ec0565b840191505092915050565b600060c083016000830151617e0b6000860182617d9a565b506020830151617e1e6020860182617d9a565b5060408301518482036040860152617e368282617dba565b9150506060830151617e4b6060860182617d1a565b506080830151617e5e6080860182617d1a565b5060a0830151617e7160a0860182617d1a565b508091505092915050565b60006020820190508181036000830152617e968184617df3565b905092915050565b600060c08284031215617eb457617eb361734e565b5b81905092915050565b600060c08284031215617ed357617ed2616cb1565b5b6000617ee184828501617e9e565b91505092915050565b60008060a08385031215617f0157617f00616cb1565b5b6000617f0f85828601616d97565b9250506020617f20858286016175d1565b9150509250929050565b60008060408385031215617f4157617f40616cb1565b5b6000617f4f85828601616f75565b9250506020617f6085828601616f75565b9150509250929050565b60006101808284031215617f8157617f8061734e565b5b81905092915050565b600060208284031215617fa057617f9f616cb1565b5b600082013567ffffffffffffffff811115617fbe57617fbd616cb6565b5b617fca84828501617f6a565b91505092915050565b6000819050919050565b617fe681617fd3565b82525050565b60006020820190506180016000830184617fdd565b92915050565b600060c08301600083015161801f6000860182617d9a565b5060208301516180326020860182617d1a565b5060408301516180456040860182617d1a565b506060830151848203606086015261805d8282617dba565b915050608083015184820360808601526180778282617dba565b91505060a083015184820360a08601526180918282617dba565b9150508091505092915050565b600060208201905081810360008301526180b88184618007565b905092915050565b60008083601f8401126180d6576180d5616dac565b5b8235905067ffffffffffffffff8111156180f3576180f2616db1565b5b60208301915083602082028301111561810f5761810e616db6565b5b9250929050565b60008083601f84011261812c5761812b616dac565b5b8235905067ffffffffffffffff81111561814957618148616db1565b5b60208301915083602082028301111561816557618164616db6565b5b9250929050565b6000806000806040858703121561818657618185616cb1565b5b600085013567ffffffffffffffff8111156181a4576181a3616cb6565b5b6181b0878288016180c0565b9450945050602085013567ffffffffffffffff8111156181d3576181d2616cb6565b5b6181df87828801618116565b925092505092959194509250565b600060c082840312156182035761820261734e565b5b81905092915050565b60006020828403121561822257618221616cb1565b5b600082013567ffffffffffffffff8111156182405761823f616cb6565b5b61824c848285016181ed565b91505092915050565b7f4e487b7100000000000000000000000000000000000000000000000000000000600052602260045260246000fd5b6000600282049050600182168061829c57607f821691505b602082108114156182b0576182af618255565b5b50919050565b7f4552433732313a20617070726f76656420717565727920666f72206e6f6e657860008201527f697374656e7420746f6b656e0000000000000000000000000000000000000000602082015250565b6000618312602c83616e7c565b915061831d826182b6565b604082019050919050565b6000602082019050818103600083015261834181618305565b9050919050565b7f4552433732313a20617070726f76616c20746f2063757272656e74206f776e6560008201527f7200000000000000000000000000000000000000000000000000000000000000602082015250565b60006183a4602183616e7c565b91506183af82618348565b604082019050919050565b600060208201905081810360008301526183d381618397565b9050919050565b7f4552433732313a20617070726f76652063616c6c6572206973206e6f74206f7760008201527f6e6572206e6f7220617070726f76656420666f7220616c6c0000000000000000602082015250565b6000618436603883616e7c565b9150618441826183da565b604082019050919050565b6000602082019050818103600083015261846581618429565b9050919050565b600081905092915050565b6000618483838561846c565b9350618490838584617abd565b82840190509392505050565b60006184a9828486618477565b91508190509392505050565b7f4552433732313a207472616e736665722063616c6c6572206973206e6f74206f60008201527f776e6572206e6f7220617070726f766564000000000000000000000000000000602082015250565b6000618511603183616e7c565b915061851c826184b5565b604082019050919050565b6000602082019050818103600083015261854081618504565b9050919050565b7f455243373231456e756d657261626c653a206f776e657220696e646578206f7560008201527f74206f6620626f756e6473000000000000000000000000000000000000000000602082015250565b60006185a3602b83616e7c565b91506185ae82618547565b604082019050919050565b600060208201905081810360008301526185d281618596565b9050919050565b600080fd5b600080fd5b600080fd5b60008083356001602003843603038112618605576186046185d9565b5b80840192508235915067ffffffffffffffff821115618627576186266185de565b5b602083019250600182023603831315618643576186426185e3565b5b509250929050565b7f4e487b7100000000000000000000000000000000000000000000000000000000600052601160045260246000fd5b600061868582616d76565b91507fffffffffffffffffffffffffffffffffffffffffffffffffffffffffffffffff8214156186b8576186b761864b565b5b600182019050919050565b600060c0820190506186d86000830189617fdd565b6186e560208301886170b6565b6186f2604083018761704c565b6186ff6060830186617fdd565b61870c60808301856170b6565b61871960a08301846170b6565b979650505050505050565b600080fd5b600080fd5b600060ff82169050919050565b6187448161872e565b811461874f57600080fd5b50565b6000813590506187618161873b565b92915050565b61877081617fd3565b811461877b57600080fd5b50565b60008135905061878d81618767565b92915050565b6000608082840312156187a9576187a8618724565b5b6187b36080617a71565b905060006187c384828501618752565b60008301525060206187d78482850161877e565b60208301525060406187eb8482850161877e565b60408301525060606187ff84828501616d97565b60608301525092915050565b60006080828403121561882157618820616cb1565b5b600061882f84828501618793565b91505092915050565b61884181616d76565b82525050565b61885081616f4c565b82525050565b600082825260208201905092915050565b60006188738385618856565b9350618880838584617abd565b61888983616ec0565b840190509392505050565b8082525050565b8082525050565b600060a0820190506188b76000830189618838565b6188c46020830188618847565b81810360408301526188d7818688618867565b90506188e66060830185618894565b6188f3608083018461889b565b979650505050505050565b6000808335600160200384360303811261891b5761891a6185d9565b5b80840192508235915067ffffffffffffffff82111561893d5761893c6185de565b5b602083019250600182023603831315618959576189586185e3565b5b509250929050565b600061012082019050618977600083018c617fdd565b618984602083018b6170b6565b618991604083018a617fdd565b61899e606083018961704c565b6189ab6080830188617fdd565b6189b860a083018761704c565b6189c560c0830186617fdd565b6189d260e08301856170b6565b6189e06101008301846170b6565b9a9950505050505050505050565b7f455243373231456e756d657261626c653a20676c6f62616c20696e646578206f60008201527f7574206f6620626f756e64730000000000000000000000000000000000000000602082015250565b6000618a4a602c83616e7c565b9150618a55826189ee565b604082019050919050565b60006020820190508181036000830152618a7981618a3d565b9050919050565b7f4e487b7100000000000000000000000000000000000000000000000000000000600052603260045260246000fd5b7f4552433732313a206d696e742074696d657374616d7020717565727920666f7260008201527f206e6f6e6578697374656e7420746f6b656e0000000000000000000000000000602082015250565b6000618b0b603283616e7c565b9150618b1682618aaf565b604082019050919050565b60006020820190508181036000830152618b3a81618afe565b9050919050565b7f4552433732313a206f776e657220717565727920666f72206e6f6e657869737460008201527f656e7420746f6b656e0000000000000000000000000000000000000000000000602082015250565b6000618b9d602983616e7c565b9150618ba882618b41565b604082019050919050565b60006020820190508181036000830152618bcc81618b90565b9050919050565b7f4552433732313a2062616c616e636520717565727920666f7220746865207a6560008201527f726f206164647265737300000000000000000000000000000000000000000000602082015250565b6000618c2f602a83616e7c565b9150618c3a82618bd3565b604082019050919050565b60006020820190508181036000830152618c5e81618c22565b9050919050565b600060a082019050618c7a6000830188617fdd565b618c87602083018761704c565b618c9460408301866170b6565b618ca160608301856170b6565b618cae60808301846170b6565b9695505050505050565b8082525050565b8082525050565b600060e082019050618cdb600083018b618847565b618ce8602083018a618838565b618cf56040830189618838565b8181036060830152618d08818789618867565b9050618d176080830186618847565b618d2460a0830185618cb8565b618d3160c0830184618cbf565b9998505050505050505050565b6000606082019050618d53600083018661704c565b618d60602083018561704c565b618d6d60408301846170b6565b949350505050565b600060c082019050618d8a6000830189617fdd565b618d97602083018861704c565b618da4604083018761704c565b618db16060830186616d4c565b618dbe60808301856170b6565b618dcb60a08301846170b6565b979650505050505050565b60008083356001602003843603038112618df357618df26185d9565b5b80840192508235915067ffffffffffffffff821115618e1557618e146185de565b5b602083019250602082023603831315618e3157618e306185e3565b5b509250929050565b60008083356001602003843603038112618e5657618e556185d9565b5b80840192508235915067ffffffffffffffff821115618e7857618e776185de565b5b602083019250602082023603831315618e9457618e936185e3565b5b509250929050565b600081905092915050565b600080fd5b6000618eb88385618e9c565b93507f07ffffffffffffffffffffffffffffffffffffffffffffffffffffffffffffff831115618eeb57618eea618ea7565b5b602083029250618efc838584617abd565b82840190509392505050565b6000618f15828486618eac565b91508190509392505050565b600081519050919050565b600081905092915050565b6000819050602082019050919050565b618f5081617fd3565b82525050565b6000618f628383618f47565b60208301905092915050565b6000602082019050919050565b6000618f8682618f21565b618f908185618f2c565b9350618f9b83618f37565b8060005b83811015618fcc578151618fb38882618f56565b9750618fbe83618f6e565b925050600181019050618f9f565b5085935050505092915050565b6000618fe58284618f7b565b915081905092915050565b600060a0820190506190056000830188617fdd565b6190126020830187617fdd565b61901f6040830186617fdd565b61902c60608301856170b6565b61903960808301846170b6565b9695505050505050565b600082825260208201905092915050565b60006190608385619043565b93507f07ffffffffffffffffffffffffffffffffffffffffffffffffffffffffffffff83111561909357619092618ea7565b5b6020830292506190a4838584617abd565b82840190509392505050565b600082825260208201905092915050565b6000819050919050565b600082825260208201905092915050565b60006190e883856190cb565b93506190f5838584617abd565b6190fe83616ec0565b840190509392505050565b60006191168484846190dc565b90509392505050565b600080fd5b600080fd5b600080fd5b6000808335600160200384360303811261914b5761914a619129565b5b83810192508235915060208301925067ffffffffffffffff8211156191735761917261911f565b5b60018202360384131561918957619188619124565b5b509250929050565b6000602082019050919050565b60006191aa83856190b0565b9350836020840285016191bc846190c1565b8060005b878110156192025784840389526191d7828461912e565b6191e2868284619109565b95506191ed84619191565b935060208b019a5050506001810190506191c0565b50829750879450505050509392505050565b8082525050565b600060c082019050619230600083018b618847565b818103602083015261924381898b619054565b9050818103604083015261925881878961919e565b90506192676060830186618847565b6192746080830185618cbf565b61928160a0830184619214565b9998505050505050505050565b6000610100820190506192a4600083018b617fdd565b6192b1602083018a6170b6565b6192be60408301896170b6565b6192cb60608301886170b6565b6192d8608083018761704c565b6192e560a0830186617fdd565b6192f260c08301856170b6565b6192ff60e08301846170b6565b9998505050505050505050565b600060a0820190506193216000830188617fdd565b61932e60208301876170b6565b61933b6040830186617fdd565b61934860608301856170b6565b61935560808301846170b6565b9695505050505050565b7f4552433732313a20617070726f766520746f2063616c6c657200000000000000600082015250565b6000619395601983616e7c565b91506193a08261935f565b602082019050919050565b600060208201905081810360008301526193c481619388565b9050919050565b600067ffffffffffffffff8211156193e6576193e5617a11565b5b6193ef82616ec0565b9050602081019050919050565b600061940f61940a846193cb565b617a71565b90508281526020810184848401111561942b5761942a617a0c565b5b619436848285617abd565b509392505050565b600082601f83011261945357619452616dac565b5b81356194638482602086016193fc565b91505092915050565b6000610100828403121561948357619482618724565b5b61948e610100617a71565b9050600061949e84828501616d97565b600083015250602082013567ffffffffffffffff8111156194c2576194c1618729565b5b6194ce8482850161943e565b60208301525060406194e284828501616d97565b60408301525060606194f684828501616d97565b606083015250608061950a84828501616f75565b60808301525060a082013567ffffffffffffffff81111561952e5761952d618729565b5b61953a84828501617b0e565b60a08301525060c061954e84828501616f75565b60c08301525060e082013567ffffffffffffffff81111561957257619571618729565b5b61957e84828501617b0e565b60e08301525092915050565b6000619596368361946c565b9050919050565b600060c0820190506195b26000830189617fdd565b6195bf60208301886170b6565b6195cc60408301876170b6565b6195d96060830186617fdd565b6195e660808301856170b6565b6195f360a08301846170b6565b979650505050505050565b600060a0820190506196136000830188617fdd565b61962060208301876170b6565b61962d604083018661704c565b61963a60608301856170b6565b61964760808301846170b6565b9695505050505050565b7f4552433732313a20746f6b656e206461746120717565727920666f72206e6f6e60008201527f6578697374656e7420746f6b656e000000000000000000000000000000000000602082015250565b60006196ad602e83616e7c565b91506196b882619651565b604082019050919050565b600060208201905081810360008301526196dc816196a0565b9050919050565b6000815190506196f281616d80565b92915050565b60006020828403121561970e5761970d616cb1565b5b600061971c848285016196e3565b91505092915050565b600082825260208201905092915050565b60008190508160005260206000209050919050565b6000815461975881618284565b6197628186619725565b9450600182166000811461977d576001811461978f576197c2565b60ff19831686526020860193506197c2565b61979885619736565b60005b838110156197ba5781548189015260018201915060208101905061979b565b808801955050505b50505092915050565b600060a0820190506197e06000830188618838565b6197ed6020830187618838565b6197fa6040830186618847565b818103606083015261980c818561974b565b90508181036080830152619820818461974b565b90509695505050505050565b600061983f61983a846193cb565b617a71565b90508281526020810184848401111561985b5761985a617a0c565b5b619866848285616e8d565b509392505050565b600082601f83011261988357619882616dac565b5b815161989384826020860161982c565b91505092915050565b6000602082840312156198b2576198b1616cb1565b5b600082015167ffffffffffffffff8111156198d0576198cf616cb6565b5b6198dc8482850161986e565b91505092915050565b6000610160820190506198fb600083018e617fdd565b619908602083018d6170b6565b619915604083018c617fdd565b619922606083018b6170b6565b61992f608083018a6170b6565b61993c60a083018961704c565b61994960c0830188617fdd565b61995660e083018761704c565b619964610100830186617fdd565b6199726101208301856170b6565b6199806101408301846170b6565b9c9b505050505050505050505050565b600061999f6020840184616f75565b905092915050565b6199b081616f4c565b82525050565b600080833560016020038436030381126199d3576199d2619129565b5b83810192508235915060208301925067ffffffffffffffff8211156199fb576199fa61911f565b5b600182023603841315619a1157619a10619124565b5b509250929050565b600082825260208201905092915050565b6000619a368385619a19565b9350619a43838584617abd565b619a4c83616ec0565b840190509392505050565b600060c08301619a6a6000840184619990565b619a7760008601826199a7565b50619a8560208401846199b6565b8583036020870152619a98838284619a2a565b92505050619aa960408401846199b6565b8583036040870152619abc838284619a2a565b92505050619acd6060840184619990565b619ada60608601826199a7565b50619ae8608084018461912e565b8583036080870152619afb8382846190dc565b92505050619b0c60a08401846199b6565b85830360a0870152619b1f838284619a2a565b925050508091505092915050565b600060a0820190508181036000830152619b478188619a57565b9050619b566020830187618838565b619b636040830186619214565b619b706060830185618cbf565b619b7d608083018461889b565b9695505050505050565b60006040820190508181036000830152619ba18185616ed1565b9050619bb060208301846170b6565b9392505050565b6000619bc38385616e7c565b9350619bd0838584617abd565b619bd983616ec0565b840190509392505050565b60006060820190508181036000830152619bff818789619bb7565b90508181036020830152619c14818587619bb7565b9050619c2360408301846170b6565b9695505050505050565b7f4552433732313a206f70657261746f7220717565727920666f72206e6f6e657860008201527f697374656e7420746f6b656e0000000000000000000000000000000000000000602082015250565b6000619c89602c83616e7c565b9150619c9482619c2d565b604082019050919050565b60006020820190508181036000830152619cb881619c7c565b9050919050565b7f4552433732313a207472616e73666572206f6620746f6b656e2074686174206960008201527f73206e6f74206f776e0000000000000000000000000000000000000000000000602082015250565b6000619d1b602983616e7c565b9150619d2682619cbf565b604082019050919050565b60006020820190508181036000830152619d4a81619d0e565b9050919050565b7f4552433732313a207472616e7366657220746f20746865207a65726f2061646460008201527f7265737300000000000000000000000000000000000000000000000000000000602082015250565b6000619dad602483616e7c565b9150619db882619d51565b604082019050919050565b60006020820190508181036000830152619ddc81619da0565b9050919050565b6000619dee82616d76565b9150619df983616d76565b925082821015619e0c57619e0b61864b565b5b828203905092915050565b6000619e2282616d76565b9150619e2d83616d76565b9250827fffffffffffffffffffffffffffffffffffffffffffffffffffffffffffffffff03821115619e6257619e6161864b565b5b828201905092915050565b600081905092915050565b7f1901000000000000000000000000000000000000000000000000000000000000600082015250565b6000619eae600283619e6d565b9150619eb982619e78565b600282019050919050565b6000819050919050565b619edf619eda82617fd3565b619ec4565b82525050565b6000619ef082619ea1565b9150619efc8285619ece565b602082019150619f0c8284619ece565b6020820191508190509392505050565b619f258161872e565b82525050565b6000608082019050619f406000830187617fdd565b619f4d6020830186619f1c565b619f5a6040830185617fdd565b619f676060830184617fdd565b95945050505050565b6000619f7b82616e71565b619f858185619725565b9350619f95818560208601616e8d565b619f9e81616ec0565b840191505092915050565b600081519050919050565b6000619fbf82619fa9565b619fc98185618856565b9350619fd9818560208601616e8d565b619fe281616ec0565b840191505092915050565b60006101408201905061a003600083018d618838565b818103602083015261a015818c619f70565b905061a024604083018b618847565b818103606083015261a036818a619fb4565b905061a0456080830189618847565b81810360a083015261a0578188619fb4565b905061a06660c0830187618838565b61a07360e0830186618cb8565b61a08161010083018561889b565b61a08f61012083018461889b565b9b9a5050505050505050505050565b60008190508160005260206000209050919050565b6000815461a0c081618284565b61a0ca818661846c565b9450600182166000811461a0e5576001811461a0f65761a129565b60ff1983168652818601935061a129565b61a0ff8561a09e565b60005b8381101561a1215781548189015260018201915060208101905061a102565b838801955050505b50505092915050565b600061a13e828461a0b3565b915081905092915050565b60006101008201905061a15f600083018c618838565b61a16c602083018b618838565b61a179604083018a618838565b61a1866060830189618847565b818103608083015261a199818789618867565b905061a1a860a0830186618838565b61a1b560c0830185618cb8565b61a1c260e083018461889b565b9a9950505050505050505050565b61a1d981616d76565b82525050565b600061a1ea82616e71565b61a1f48185619a19565b935061a204818560208601616e8d565b61a20d81616ec0565b840191505092915050565b600061a22382619fa9565b61a22d81856190cb565b935061a23d818560208601616e8d565b61a24681616ec0565b840191505092915050565b60006101008301600083015161a26a600086018261a1d0565b506020830151848203602086015261a282828261a1df565b915050604083015161a297604086018261a1d0565b50606083015161a2aa606086018261a1d0565b50608083015161a2bd60808601826199a7565b5060a083015184820360a086015261a2d5828261a218565b91505060c083015161a2ea60c08601826199a7565b5060e083015184820360e086015261a302828261a218565b9150508091505092915050565b600060c082019050818103600083015261a329818961a251565b905061a3386020830188618838565b61a3456040830187618cbf565b61a3526060830186618cb8565b61a35f608083018561889b565b61a36c60a083018461889b565b979650505050505050565b7f4552433732313a207472616e7366657220746f206e6f6e20455243373231526560008201527f63656976657220696d706c656d656e7465720000000000000000000000000000602082015250565b600061a3d3603283616e7c565b915061a3de8261a377565b604082019050919050565b6000602082019050818103600083015261a4028161a3c6565b9050919050565b600060808201905061a41e6000830187617fdd565b61a42b60208301866170b6565b61a43860408301856170b6565b61a44560608301846170b6565b95945050505050565b600060a08201905061a4636000830188617fdd565b61a4706020830187617fdd565b61a47d6040830186617fdd565b61a48a60608301856170b6565b61a497608083018461704c565b9695505050505050565b7f4552433732313a206d696e7420746f20746865207a65726f2061646472657373600082015250565b600061a4d7602083616e7c565b915061a4e28261a4a1565b602082019050919050565b6000602082019050818103600083015261a5068161a4ca565b9050919050565b7f4552433732313a20746f6b656e20616c7265616479206d696e74656400000000600082015250565b600061a543601c83616e7c565b915061a54e8261a50d565b602082019050919050565b6000602082019050818103600083015261a5728161a536565b9050919050565b600082825260208201905092915050565b600061a59582619fa9565b61a59f818561a579565b935061a5af818560208601616e8d565b61a5b881616ec0565b840191505092915050565b600060808201905061a5d8600083018761704c565b61a5e5602083018661704c565b61a5f260408301856170b6565b818103606083015261a604818461a58a565b905095945050505050565b60008151905061a61e81616ce7565b92915050565b60006020828403121561a63a5761a639616cb1565b5b600061a6488482850161a60f565b91505092915050565b7f4e487b7100000000000000000000000000000000000000000000000000000000600052603160045260246000fdfea264697066735822122077c8aa0f72fe48c75494034d931631d871f822e43510b4bab8c309094b58132564736f6c634300080a0033",
  "linkReferences": {
    "contracts/lensContracts/libraries/InteractionLogic.sol": {
      "InteractionLogic": [
        {
          "length": 20,
          "start": 10207
        },
        {
          "length": 20,
          "start": 11605
        },
        {
          "length": 20,
          "start": 14002
        },
        {
          "length": 20,
          "start": 19040
        }
      ]
    },
    "contracts/lensContracts/libraries/ProfileTokenURILogic.sol": {
      "ProfileTokenURILogic": [
        {
          "length": 20,
          "start": 16417
        }
      ]
    },
    "contracts/lensContracts/libraries/PublishingLogic.sol": {
      "PublishingLogic": [
        {
          "length": 20,
          "start": 7296
        },
        {
          "length": 20,
          "start": 9545
        },
        {
          "length": 20,
          "start": 19266
        },
        {
          "length": 20,
          "start": 22380
        },
        {
          "length": 20,
          "start": 22704
        },
        {
          "length": 20,
          "start": 23239
        }
      ]
    }
  },
  "deployedLinkReferences": {
    "contracts/lensContracts/libraries/InteractionLogic.sol": {
      "InteractionLogic": [
        {
          "length": 20,
          "start": 9744
        },
        {
          "length": 20,
          "start": 11142
        },
        {
          "length": 20,
          "start": 13539
        },
        {
          "length": 20,
          "start": 18577
        }
      ]
    },
    "contracts/lensContracts/libraries/ProfileTokenURILogic.sol": {
      "ProfileTokenURILogic": [
        {
          "length": 20,
          "start": 15954
        }
      ]
    },
    "contracts/lensContracts/libraries/PublishingLogic.sol": {
      "PublishingLogic": [
        {
          "length": 20,
          "start": 6833
        },
        {
          "length": 20,
          "start": 9082
        },
        {
          "length": 20,
          "start": 18803
        },
        {
          "length": 20,
          "start": 21917
        },
        {
          "length": 20,
          "start": 22241
        },
        {
          "length": 20,
          "start": 22776
        }
      ]
    }
  }
}