{
  "_format": "hh-sol-artifact-1",
  "contractName": "EventToAddressStore",
  "sourceName": "contracts/EventToAddressStore.sol",
  "abi": [
    {
      "inputs": [
        {
          "internalType": "address",
          "name": "",
          "type": "address"
        }
      ],
      "name": "addressToUri",
      "outputs": [
        {
          "internalType": "string",
          "name": "",
          "type": "string"
        }
      ],
      "stateMutability": "view",
      "type": "function"
    },
    {
      "inputs": [
        {
          "internalType": "string",
          "name": "",
          "type": "string"
        }
      ],
      "name": "eventNameToAddress",
      "outputs": [
        {
          "internalType": "address",
          "name": "",
          "type": "address"
        }
      ],
      "stateMutability": "view",
      "type": "function"
    },
    {
      "inputs": [
        {
          "internalType": "address",
          "name": "_addr",
          "type": "address"
        },
        {
          "internalType": "string",
          "name": "_uri",
          "type": "string"
        },
        {
          "internalType": "string",
          "name": "_eventName",
          "type": "string"
        }
      ],
      "name": "setAddressAndUriForEvent",
      "outputs": [
        {
          "internalType": "uint256",
          "name": "",
          "type": "uint256"
        }
      ],
      "stateMutability": "nonpayable",
      "type": "function"
    },
    {
      "inputs": [
        {
          "internalType": "string",
          "name": "_eventName",
          "type": "string"
        },
        {
          "internalType": "address",
          "name": "_addr",
          "type": "address"
        }
      ],
      "name": "setAddressForEvent",
      "outputs": [
        {
          "internalType": "uint256",
          "name": "",
          "type": "uint256"
        }
      ],
      "stateMutability": "nonpayable",
      "type": "function"
    },
    {
      "inputs": [
        {
          "internalType": "string",
          "name": "_uri",
          "type": "string"
        },
        {
          "internalType": "address",
          "name": "_addr",
          "type": "address"
        }
      ],
      "name": "setUriForAddress",
      "outputs": [
        {
          "internalType": "uint256",
          "name": "",
          "type": "uint256"
        }
      ],
      "stateMutability": "nonpayable",
      "type": "function"
    }
  ],
  "bytecode": "0x608060405234801561001057600080fd5b50610c95806100206000396000f3fe608060405234801561001057600080fd5b50600436106100575760003560e01c806304515b2a1461005c5780631862b69d1461008c5780635b27104d146100bc57806377d76e82146100ec578063fb7ac7681461011c575b600080fd5b610076600480360381019061007191906108c4565b61014c565b6040516100839190610a37565b60405180910390f35b6100a660048036038101906100a19190610883565b610297565b6040516100b391906109da565b60405180910390f35b6100d660048036038101906100d191906108c4565b6102e0565b6040516100e39190610a37565b60405180910390f35b610106600480360381019061010191906107b2565b610434565b60405161011391906109f5565b60405180910390f35b61013660048036038101906101319190610804565b6104d4565b6040516101439190610a37565b60405180910390f35b60003373ffffffffffffffffffffffffffffffffffffffff168273ffffffffffffffffffffffffffffffffffffffff16638da5cb5b6040518163ffffffff1660e01b815260040160206040518083038186803b1580156101ab57600080fd5b505afa1580156101bf573d6000803e3d6000fd5b505050506040513d601f19601f820116820180604052508101906101e391906107db565b73ffffffffffffffffffffffffffffffffffffffff1614610239576040517f08c379a000000000000000000000000000000000000000000000000000000000815260040161023090610a17565b60405180910390fd5b82600160008473ffffffffffffffffffffffffffffffffffffffff1673ffffffffffffffffffffffffffffffffffffffff168152602001908152602001600020908051906020019061028c92919061067d565b506000905092915050565b6000818051602081018201805184825260208301602085012081835280955050505050506000915054906101000a900473ffffffffffffffffffffffffffffffffffffffff1681565b60003373ffffffffffffffffffffffffffffffffffffffff168273ffffffffffffffffffffffffffffffffffffffff16638da5cb5b6040518163ffffffff1660e01b815260040160206040518083038186803b15801561033f57600080fd5b505afa158015610353573d6000803e3d6000fd5b505050506040513d601f19601f8201168201806040525081019061037791906107db565b73ffffffffffffffffffffffffffffffffffffffff16146103cd576040517f08c379a00000000000000000000000000000000000000000000000000000000081526004016103c490610a17565b60405180910390fd5b816000846040516103de91906109c3565b908152602001604051809103902060006101000a81548173ffffffffffffffffffffffffffffffffffffffff021916908373ffffffffffffffffffffffffffffffffffffffff1602179055506000905092915050565b6001602052806000526040600020600091509050805461045390610b4d565b80601f016020809104026020016040519081016040528092919081815260200182805461047f90610b4d565b80156104cc5780601f106104a1576101008083540402835291602001916104cc565b820191906000526020600020905b8154815290600101906020018083116104af57829003601f168201915b505050505081565b60003373ffffffffffffffffffffffffffffffffffffffff168473ffffffffffffffffffffffffffffffffffffffff16638da5cb5b6040518163ffffffff1660e01b815260040160206040518083038186803b15801561053357600080fd5b505afa158015610547573d6000803e3d6000fd5b505050506040513d601f19601f8201168201806040525081019061056b91906107db565b73ffffffffffffffffffffffffffffffffffffffff16146105c1576040517f08c379a00000000000000000000000000000000000000000000000000000000081526004016105b890610a17565b60405180910390fd5b836000836040516105d291906109c3565b908152602001604051809103902060006101000a81548173ffffffffffffffffffffffffffffffffffffffff021916908373ffffffffffffffffffffffffffffffffffffffff16021790555082600160008673ffffffffffffffffffffffffffffffffffffffff1673ffffffffffffffffffffffffffffffffffffffff168152602001908152602001600020908051906020019061067192919061067d565b50600090509392505050565b82805461068990610b4d565b90600052602060002090601f0160209004810192826106ab57600085556106f2565b82601f106106c457805160ff19168380011785556106f2565b828001600101855582156106f2579182015b828111156106f15782518255916020019190600101906106d6565b5b5090506106ff9190610703565b5090565b5b8082111561071c576000816000905550600101610704565b5090565b600061073361072e84610a77565b610a52565b90508281526020810184848401111561074b57600080fd5b610756848285610b0b565b509392505050565b60008135905061076d81610c48565b92915050565b60008151905061078281610c48565b92915050565b600082601f83011261079957600080fd5b81356107a9848260208601610720565b91505092915050565b6000602082840312156107c457600080fd5b60006107d28482850161075e565b91505092915050565b6000602082840312156107ed57600080fd5b60006107fb84828501610773565b91505092915050565b60008060006060848603121561081957600080fd5b60006108278682870161075e565b935050602084013567ffffffffffffffff81111561084457600080fd5b61085086828701610788565b925050604084013567ffffffffffffffff81111561086d57600080fd5b61087986828701610788565b9150509250925092565b60006020828403121561089557600080fd5b600082013567ffffffffffffffff8111156108af57600080fd5b6108bb84828501610788565b91505092915050565b600080604083850312156108d757600080fd5b600083013567ffffffffffffffff8111156108f157600080fd5b6108fd85828601610788565b925050602061090e8582860161075e565b9150509250929050565b61092181610acf565b82525050565b600061093282610aa8565b61093c8185610ab3565b935061094c818560208601610b1a565b61095581610c0e565b840191505092915050565b600061096b82610aa8565b6109758185610ac4565b9350610985818560208601610b1a565b80840191505092915050565b600061099e601d83610ab3565b91506109a982610c1f565b602082019050919050565b6109bd81610b01565b82525050565b60006109cf8284610960565b915081905092915050565b60006020820190506109ef6000830184610918565b92915050565b60006020820190508181036000830152610a0f8184610927565b905092915050565b60006020820190508181036000830152610a3081610991565b9050919050565b6000602082019050610a4c60008301846109b4565b92915050565b6000610a5c610a6d565b9050610a688282610b7f565b919050565b6000604051905090565b600067ffffffffffffffff821115610a9257610a91610bdf565b5b610a9b82610c0e565b9050602081019050919050565b600081519050919050565b600082825260208201905092915050565b600081905092915050565b6000610ada82610ae1565b9050919050565b600073ffffffffffffffffffffffffffffffffffffffff82169050919050565b6000819050919050565b82818337600083830152505050565b60005b83811015610b38578082015181840152602081019050610b1d565b83811115610b47576000848401525b50505050565b60006002820490506001821680610b6557607f821691505b60208210811415610b7957610b78610bb0565b5b50919050565b610b8882610c0e565b810181811067ffffffffffffffff82111715610ba757610ba6610bdf565b5b80604052505050565b7f4e487b7100000000000000000000000000000000000000000000000000000000600052602260045260246000fd5b7f4e487b7100000000000000000000000000000000000000000000000000000000600052604160045260246000fd5b6000601f19601f8301169050919050565b7f596f7520646f206e6f74206f776e207468697320636f6e74726163742e000000600082015250565b610c5181610acf565b8114610c5c57600080fd5b5056fea26469706673582212204df7137c828171892925cb519ba38b71e6970292eb3e462597a59d5016f2c9cd64736f6c63430008040033",
  "linkReferences": {},
  "deployedLinkReferences": {}
}