{
  "_format": "hh-sol-artifact-1",
  "contractName": "Event",
  "sourceName": "contracts/Event.sol",
  "abi": [
    {
      "inputs": [
        {
          "internalType": "address",
          "name": "_NFTToHold",
          "type": "address"
        },
        {
          "internalType": "uint256",
          "name": "_maxTicketNumber",
          "type": "uint256"
        },
        {
          "internalType": "uint256",
          "name": "_price",
          "type": "uint256"
        },
        {
          "internalType": "string",
          "name": "_eventName",
          "type": "string"
        },
        {
          "internalType": "string",
          "name": "_eventSymbol",
          "type": "string"
        },
        {
          "internalType": "string",
          "name": "_tokenURI",
          "type": "string"
        }
      ],
      "stateMutability": "nonpayable",
      "type": "constructor"
    },
    {
      "inputs": [],
      "name": "NFTToHold",
      "outputs": [
        {
          "internalType": "address",
          "name": "",
          "type": "address"
        }
      ],
      "stateMutability": "view",
      "type": "function"
    },
    {
      "inputs": [
        {
          "internalType": "uint256",
          "name": "",
          "type": "uint256"
        }
      ],
      "name": "hashes",
      "outputs": [
        {
          "internalType": "string",
          "name": "",
          "type": "string"
        }
      ],
      "stateMutability": "view",
      "type": "function"
    },
    {
      "inputs": [
        {
          "internalType": "uint256",
          "name": "",
          "type": "uint256"
        },
        {
          "internalType": "uint256",
          "name": "",
          "type": "uint256"
        }
      ],
      "name": "hashesForNFT",
      "outputs": [
        {
          "internalType": "string",
          "name": "",
          "type": "string"
        }
      ],
      "stateMutability": "view",
      "type": "function"
    },
    {
      "inputs": [],
      "name": "maxTicketNumber",
      "outputs": [
        {
          "internalType": "uint256",
          "name": "",
          "type": "uint256"
        }
      ],
      "stateMutability": "view",
      "type": "function"
    },
    {
      "inputs": [
        {
          "internalType": "uint256",
          "name": "_index",
          "type": "uint256"
        },
        {
          "internalType": "string",
          "name": "_hash",
          "type": "string"
        }
      ],
      "name": "mintTicket",
      "outputs": [
        {
          "internalType": "uint256",
          "name": "",
          "type": "uint256"
        }
      ],
      "stateMutability": "nonpayable",
      "type": "function"
    },
    {
      "inputs": [
        {
          "internalType": "uint256",
          "name": "",
          "type": "uint256"
        }
      ],
      "name": "mintedFromIndex",
      "outputs": [
        {
          "internalType": "uint256",
          "name": "",
          "type": "uint256"
        }
      ],
      "stateMutability": "view",
      "type": "function"
    },
    {
      "inputs": [],
      "name": "owner",
      "outputs": [
        {
          "internalType": "address",
          "name": "",
          "type": "address"
        }
      ],
      "stateMutability": "view",
      "type": "function"
    },
    {
      "inputs": [],
      "name": "price",
      "outputs": [
        {
          "internalType": "uint256",
          "name": "",
          "type": "uint256"
        }
      ],
      "stateMutability": "view",
      "type": "function"
    },
    {
      "inputs": [],
      "name": "ticketNFTContract",
      "outputs": [
        {
          "internalType": "address",
          "name": "",
          "type": "address"
        }
      ],
      "stateMutability": "view",
      "type": "function"
    }
  ],
  "bytecode": "0x60806040523480156200001157600080fd5b50604051620047af380380620047af8339818101604052810190620000379190620001fd565b856000806101000a81548173ffffffffffffffffffffffffffffffffffffffff021916908373ffffffffffffffffffffffffffffffffffffffff160217905550846001819055508360028190555082828260405162000096906200014f565b620000a4939291906200031f565b604051809103906000f080158015620000c1573d6000803e3d6000fd5b50600660006101000a81548173ffffffffffffffffffffffffffffffffffffffff021916908373ffffffffffffffffffffffffffffffffffffffff16021790555033600760006101000a81548173ffffffffffffffffffffffffffffffffffffffff021916908373ffffffffffffffffffffffffffffffffffffffff1602179055505050505050506200050a565b6134be80620012f183390190565b6000620001746200016e846200039a565b62000371565b9050828152602081018484840111156200018d57600080fd5b6200019a8482856200042a565b509392505050565b600081519050620001b381620004d6565b92915050565b600082601f830112620001cb57600080fd5b8151620001dd8482602086016200015d565b91505092915050565b600081519050620001f781620004f0565b92915050565b60008060008060008060c087890312156200021757600080fd5b60006200022789828a01620001a2565b96505060206200023a89828a01620001e6565b95505060406200024d89828a01620001e6565b945050606087015167ffffffffffffffff8111156200026b57600080fd5b6200027989828a01620001b9565b935050608087015167ffffffffffffffff8111156200029757600080fd5b620002a589828a01620001b9565b92505060a087015167ffffffffffffffff811115620002c357600080fd5b620002d189828a01620001b9565b9150509295509295509295565b6000620002eb82620003d0565b620002f78185620003db565b9350620003098185602086016200042a565b6200031481620004c5565b840191505092915050565b600060608201905081810360008301526200033b8186620002de565b90508181036020830152620003518185620002de565b90508181036040830152620003678184620002de565b9050949350505050565b60006200037d62000390565b90506200038b828262000460565b919050565b6000604051905090565b600067ffffffffffffffff821115620003b857620003b762000496565b5b620003c382620004c5565b9050602081019050919050565b600081519050919050565b600082825260208201905092915050565b6000620003f98262000400565b9050919050565b600073ffffffffffffffffffffffffffffffffffffffff82169050919050565b6000819050919050565b60005b838110156200044a5780820151818401526020810190506200042d565b838111156200045a576000848401525b50505050565b6200046b82620004c5565b810181811067ffffffffffffffff821117156200048d576200048c62000496565b5b80604052505050565b7f4e487b7100000000000000000000000000000000000000000000000000000000600052604160045260246000fd5b6000601f19601f8301169050919050565b620004e181620003ec565b8114620004ed57600080fd5b50565b620004fb8162000420565b81146200050757600080fd5b50565b610dd7806200051a6000396000f3fe608060405234801561001057600080fd5b50600436106100935760003560e01c806334bf19451161006657806334bf194514610122578063501895ae146101525780638da5cb5b14610182578063a035b1fe146101a0578063ffe0a95d146101be57610093565b80630812d1ff1461009857806319e2a211146100b657806328a88ea6146100e657806330c7b45f14610104575b600080fd5b6100a06101ee565b6040516100ad9190610a1c565b60405180910390f35b6100d060048036038101906100cb91906108ef565b610212565b6040516100dd9190610a99565b60405180910390f35b6100ee610555565b6040516100fb9190610a99565b60405180910390f35b61010c61055b565b6040516101199190610a1c565b60405180910390f35b61013c60048036038101906101379190610943565b610581565b6040516101499190610a37565b60405180910390f35b61016c6004803603810190610167919061089d565b61063a565b6040516101799190610a37565b60405180910390f35b61018a6106e6565b6040516101979190610a1c565b60405180910390f35b6101a861070c565b6040516101b59190610a99565b60405180910390f35b6101d860048036038101906101d3919061089d565b610712565b6040516101e59190610a99565b60405180910390f35b60008054906101000a900473ffffffffffffffffffffffffffffffffffffffff1681565b60003373ffffffffffffffffffffffffffffffffffffffff1660008054906101000a900473ffffffffffffffffffffffffffffffffffffffff1673ffffffffffffffffffffffffffffffffffffffff16636352211e856040518263ffffffff1660e01b81526004016102849190610a99565b60206040518083038186803b15801561029c57600080fd5b505afa1580156102b0573d6000803e3d6000fd5b505050506040513d601f19601f820116820180604052508101906102d49190610874565b73ffffffffffffffffffffffffffffffffffffffff161461032a576040517f08c379a000000000000000000000000000000000000000000000000000000000815260040161032190610a79565b60405180910390fd5b600154600360008581526020019081526020016000205410610381576040517f08c379a000000000000000000000000000000000000000000000000000000000815260040161037890610a59565b60405180910390fd5b600760009054906101000a900473ffffffffffffffffffffffffffffffffffffffff1673ffffffffffffffffffffffffffffffffffffffff166108fc6002549081150290604051600060405180830381858888f193505050501580156103eb573d6000803e3d6000fd5b5060016003600085815260200190815260200160002060008282546104109190610b26565b92505081905550600460008481526020019081526020016000208290806001815401808255809150506001900390600052602060002001600090919091909150908051906020019061046392919061072a565b5060058290806001815401808255809150506001900390600052602060002001600090919091909150908051906020019061049f92919061072a565b50600660009054906101000a900473ffffffffffffffffffffffffffffffffffffffff1673ffffffffffffffffffffffffffffffffffffffff166354ba0f27336040518263ffffffff1660e01b81526004016104fb9190610a1c565b602060405180830381600087803b15801561051557600080fd5b505af1158015610529573d6000803e3d6000fd5b505050506040513d601f19601f8201168201806040525081019061054d91906108c6565b905092915050565b60015481565b600660009054906101000a900473ffffffffffffffffffffffffffffffffffffffff1681565b6004602052816000526040600020818154811061059d57600080fd5b906000526020600020016000915091505080546105b990610bfa565b80601f01602080910402602001604051908101604052809291908181526020018280546105e590610bfa565b80156106325780601f1061060757610100808354040283529160200191610632565b820191906000526020600020905b81548152906001019060200180831161061557829003601f168201915b505050505081565b6005818154811061064a57600080fd5b90600052602060002001600091509050805461066590610bfa565b80601f016020809104026020016040519081016040528092919081815260200182805461069190610bfa565b80156106de5780601f106106b3576101008083540402835291602001916106de565b820191906000526020600020905b8154815290600101906020018083116106c157829003601f168201915b505050505081565b600760009054906101000a900473ffffffffffffffffffffffffffffffffffffffff1681565b60025481565b60036020528060005260406000206000915090505481565b82805461073690610bfa565b90600052602060002090601f016020900481019282610758576000855561079f565b82601f1061077157805160ff191683800117855561079f565b8280016001018555821561079f579182015b8281111561079e578251825591602001919060010190610783565b5b5090506107ac91906107b0565b5090565b5b808211156107c95760008160009055506001016107b1565b5090565b60006107e06107db84610ad9565b610ab4565b9050828152602081018484840111156107f857600080fd5b610803848285610bb8565b509392505050565b60008151905061081a81610d73565b92915050565b600082601f83011261083157600080fd5b81356108418482602086016107cd565b91505092915050565b60008135905061085981610d8a565b92915050565b60008151905061086e81610d8a565b92915050565b60006020828403121561088657600080fd5b60006108948482850161080b565b91505092915050565b6000602082840312156108af57600080fd5b60006108bd8482850161084a565b91505092915050565b6000602082840312156108d857600080fd5b60006108e68482850161085f565b91505092915050565b6000806040838503121561090257600080fd5b60006109108582860161084a565b925050602083013567ffffffffffffffff81111561092d57600080fd5b61093985828601610820565b9150509250929050565b6000806040838503121561095657600080fd5b60006109648582860161084a565b92505060206109758582860161084a565b9150509250929050565b61098881610b7c565b82525050565b600061099982610b0a565b6109a38185610b15565b93506109b3818560208601610bc7565b6109bc81610cea565b840191505092915050565b60006109d4603383610b15565b91506109df82610cfb565b604082019050919050565b60006109f7601783610b15565b9150610a0282610d4a565b602082019050919050565b610a1681610bae565b82525050565b6000602082019050610a31600083018461097f565b92915050565b60006020820190508181036000830152610a51818461098e565b905092915050565b60006020820190508181036000830152610a72816109c7565b9050919050565b60006020820190508181036000830152610a92816109ea565b9050919050565b6000602082019050610aae6000830184610a0d565b92915050565b6000610abe610acf565b9050610aca8282610c2c565b919050565b6000604051905090565b600067ffffffffffffffff821115610af457610af3610cbb565b5b610afd82610cea565b9050602081019050919050565b600081519050919050565b600082825260208201905092915050565b6000610b3182610bae565b9150610b3c83610bae565b9250827fffffffffffffffffffffffffffffffffffffffffffffffffffffffffffffffff03821115610b7157610b70610c5d565b5b828201905092915050565b6000610b8782610b8e565b9050919050565b600073ffffffffffffffffffffffffffffffffffffffff82169050919050565b6000819050919050565b82818337600083830152505050565b60005b83811015610be5578082015181840152602081019050610bca565b83811115610bf4576000848401525b50505050565b60006002820490506001821680610c1257607f821691505b60208210811415610c2657610c25610c8c565b5b50919050565b610c3582610cea565b810181811067ffffffffffffffff82111715610c5457610c53610cbb565b5b80604052505050565b7f4e487b7100000000000000000000000000000000000000000000000000000000600052601160045260246000fd5b7f4e487b7100000000000000000000000000000000000000000000000000000000600052602260045260246000fd5b7f4e487b7100000000000000000000000000000000000000000000000000000000600052604160045260246000fd5b6000601f19601f8301169050919050565b7f416c6c20706f737369626c65207469636b6574732068617665206265656e206d60008201527f696e7465642066726f6d2074686973204e465400000000000000000000000000602082015250565b7f596f7520646f206e6f74206f776e2074686973204e4654000000000000000000600082015250565b610d7c81610b7c565b8114610d8757600080fd5b50565b610d9381610bae565b8114610d9e57600080fd5b5056fea2646970667358221220b0a9a694bbf66055efcdb86a09abb93803d80c8290cfc27d519c22440d2262ef64736f6c6343000804003360806040523480156200001157600080fd5b50604051620034be380380620034be83398181016040528101906200003791906200029f565b82828160009080519060200190620000519291906200017d565b5080600190805190602001906200006a9291906200017d565b5050506200008d62000081620000af60201b60201c565b620000b760201b60201c565b80600a9080519060200190620000a59291906200017d565b50505050620004b0565b600033905090565b6000600760009054906101000a900473ffffffffffffffffffffffffffffffffffffffff16905081600760006101000a81548173ffffffffffffffffffffffffffffffffffffffff021916908373ffffffffffffffffffffffffffffffffffffffff1602179055508173ffffffffffffffffffffffffffffffffffffffff168173ffffffffffffffffffffffffffffffffffffffff167f8be0079c531659141344cd1fd0a4f28419497f9722a3daafe3b4186f6b6457e060405160405180910390a35050565b8280546200018b90620003d5565b90600052602060002090601f016020900481019282620001af5760008555620001fb565b82601f10620001ca57805160ff1916838001178555620001fb565b82800160010185558215620001fb579182015b82811115620001fa578251825591602001919060010190620001dd565b5b5090506200020a91906200020e565b5090565b5b80821115620002295760008160009055506001016200020f565b5090565b6000620002446200023e8462000369565b62000340565b9050828152602081018484840111156200025d57600080fd5b6200026a8482856200039f565b509392505050565b600082601f8301126200028457600080fd5b8151620002968482602086016200022d565b91505092915050565b600080600060608486031215620002b557600080fd5b600084015167ffffffffffffffff811115620002d057600080fd5b620002de8682870162000272565b935050602084015167ffffffffffffffff811115620002fc57600080fd5b6200030a8682870162000272565b925050604084015167ffffffffffffffff8111156200032857600080fd5b620003368682870162000272565b9150509250925092565b60006200034c6200035f565b90506200035a82826200040b565b919050565b6000604051905090565b600067ffffffffffffffff82111562000387576200038662000470565b5b62000392826200049f565b9050602081019050919050565b60005b83811015620003bf578082015181840152602081019050620003a2565b83811115620003cf576000848401525b50505050565b60006002820490506001821680620003ee57607f821691505b6020821081141562000405576200040462000441565b5b50919050565b62000416826200049f565b810181811067ffffffffffffffff8211171562000438576200043762000470565b5b80604052505050565b7f4e487b7100000000000000000000000000000000000000000000000000000000600052602260045260246000fd5b7f4e487b7100000000000000000000000000000000000000000000000000000000600052604160045260246000fd5b6000601f19601f8301169050919050565b612ffe80620004c06000396000f3fe608060405234801561001057600080fd5b506004361061010b5760003560e01c806370a08231116100a2578063a22cb46511610071578063a22cb465146102b8578063b88d4fde146102d4578063c87b56dd146102f0578063e985e9c514610320578063f2fde38b146103505761010b565b806370a0823114610242578063715018a6146102725780638da5cb5b1461027c57806395d89b411461029a5761010b565b806323b872dd116100de57806323b872dd146101aa57806342842e0e146101c657806354ba0f27146101e25780636352211e146102125761010b565b806301ffc9a71461011057806306fdde0314610140578063081812fc1461015e578063095ea7b31461018e575b600080fd5b61012a60048036038101906101259190611fde565b61036c565b604051610137919061242a565b60405180910390f35b61014861044e565b6040516101559190612445565b60405180910390f35b61017860048036038101906101739190612030565b6104e0565b60405161018591906123c3565b60405180910390f35b6101a860048036038101906101a39190611fa2565b610565565b005b6101c460048036038101906101bf9190611e9c565b61067d565b005b6101e060048036038101906101db9190611e9c565b6106dd565b005b6101fc60048036038101906101f79190611e37565b6106fd565b60405161020991906126a7565b60405180910390f35b61022c60048036038101906102279190612030565b61083a565b60405161023991906123c3565b60405180910390f35b61025c60048036038101906102579190611e37565b6108ec565b60405161026991906126a7565b60405180910390f35b61027a6109a4565b005b610284610a2c565b60405161029191906123c3565b60405180910390f35b6102a2610a56565b6040516102af9190612445565b60405180910390f35b6102d260048036038101906102cd9190611f66565b610ae8565b005b6102ee60048036038101906102e99190611eeb565b610afe565b005b61030a60048036038101906103059190612030565b610b60565b6040516103179190612445565b60405180910390f35b61033a60048036038101906103359190611e60565b610cb2565b604051610347919061242a565b60405180910390f35b61036a60048036038101906103659190611e37565b610d46565b005b60007f80ac58cd000000000000000000000000000000000000000000000000000000007bffffffffffffffffffffffffffffffffffffffffffffffffffffffff1916827bffffffffffffffffffffffffffffffffffffffffffffffffffffffff1916148061043757507f5b5e139f000000000000000000000000000000000000000000000000000000007bffffffffffffffffffffffffffffffffffffffffffffffffffffffff1916827bffffffffffffffffffffffffffffffffffffffffffffffffffffffff1916145b80610447575061044682610e3e565b5b9050919050565b60606000805461045d906128cc565b80601f0160208091040260200160405190810160405280929190818152602001828054610489906128cc565b80156104d65780601f106104ab576101008083540402835291602001916104d6565b820191906000526020600020905b8154815290600101906020018083116104b957829003601f168201915b5050505050905090565b60006104eb82610ea8565b61052a576040517f08c379a000000000000000000000000000000000000000000000000000000000815260040161052190612607565b60405180910390fd5b6004600083815260200190815260200160002060009054906101000a900473ffffffffffffffffffffffffffffffffffffffff169050919050565b60006105708261083a565b90508073ffffffffffffffffffffffffffffffffffffffff168373ffffffffffffffffffffffffffffffffffffffff1614156105e1576040517f08c379a00000000000000000000000000000000000000000000000000000000081526004016105d890612667565b60405180910390fd5b8073ffffffffffffffffffffffffffffffffffffffff16610600610f14565b73ffffffffffffffffffffffffffffffffffffffff16148061062f575061062e81610629610f14565b610cb2565b5b61066e576040517f08c379a000000000000000000000000000000000000000000000000000000000815260040161066590612547565b60405180910390fd5b6106788383610f1c565b505050565b61068e610688610f14565b82610fd5565b6106cd576040517f08c379a00000000000000000000000000000000000000000000000000000000081526004016106c490612687565b60405180910390fd5b6106d88383836110b3565b505050565b6106f883838360405180602001604052806000815250610afe565b505050565b6000610707610f14565b73ffffffffffffffffffffffffffffffffffffffff16610725610a2c565b73ffffffffffffffffffffffffffffffffffffffff161461077b576040517f08c379a000000000000000000000000000000000000000000000000000000000815260040161077290612627565b60405180910390fd5b610785600861131a565b60006107916008611330565b905061079d838261133e565b61083181600a80546107ae906128cc565b80601f01602080910402602001604051908101604052809291908181526020018280546107da906128cc565b80156108275780601f106107fc57610100808354040283529160200191610827565b820191906000526020600020905b81548152906001019060200180831161080a57829003601f168201915b505050505061135c565b80915050919050565b6000806002600084815260200190815260200160002060009054906101000a900473ffffffffffffffffffffffffffffffffffffffff169050600073ffffffffffffffffffffffffffffffffffffffff168173ffffffffffffffffffffffffffffffffffffffff1614156108e3576040517f08c379a00000000000000000000000000000000000000000000000000000000081526004016108da90612587565b60405180910390fd5b80915050919050565b60008073ffffffffffffffffffffffffffffffffffffffff168273ffffffffffffffffffffffffffffffffffffffff16141561095d576040517f08c379a000000000000000000000000000000000000000000000000000000000815260040161095490612567565b60405180910390fd5b600360008373ffffffffffffffffffffffffffffffffffffffff1673ffffffffffffffffffffffffffffffffffffffff168152602001908152602001600020549050919050565b6109ac610f14565b73ffffffffffffffffffffffffffffffffffffffff166109ca610a2c565b73ffffffffffffffffffffffffffffffffffffffff1614610a20576040517f08c379a0000000000000000000000000000000000000000000000000000000008152600401610a1790612627565b60405180910390fd5b610a2a60006113d0565b565b6000600760009054906101000a900473ffffffffffffffffffffffffffffffffffffffff16905090565b606060018054610a65906128cc565b80601f0160208091040260200160405190810160405280929190818152602001828054610a91906128cc565b8015610ade5780601f10610ab357610100808354040283529160200191610ade565b820191906000526020600020905b815481529060010190602001808311610ac157829003601f168201915b5050505050905090565b610afa610af3610f14565b8383611496565b5050565b610b0f610b09610f14565b83610fd5565b610b4e576040517f08c379a0000000000000000000000000000000000000000000000000000000008152600401610b4590612687565b60405180910390fd5b610b5a84848484611603565b50505050565b6060610b6b82610ea8565b610baa576040517f08c379a0000000000000000000000000000000000000000000000000000000008152600401610ba1906125e7565b60405180910390fd5b6000600660008481526020019081526020016000208054610bca906128cc565b80601f0160208091040260200160405190810160405280929190818152602001828054610bf6906128cc565b8015610c435780601f10610c1857610100808354040283529160200191610c43565b820191906000526020600020905b815481529060010190602001808311610c2657829003601f168201915b505050505090506000610c5461165f565b9050600081511415610c6a578192505050610cad565b600082511115610c9f578082604051602001610c8792919061239f565b60405160208183030381529060405292505050610cad565b610ca884611676565b925050505b919050565b6000600560008473ffffffffffffffffffffffffffffffffffffffff1673ffffffffffffffffffffffffffffffffffffffff16815260200190815260200160002060008373ffffffffffffffffffffffffffffffffffffffff1673ffffffffffffffffffffffffffffffffffffffff16815260200190815260200160002060009054906101000a900460ff16905092915050565b610d4e610f14565b73ffffffffffffffffffffffffffffffffffffffff16610d6c610a2c565b73ffffffffffffffffffffffffffffffffffffffff1614610dc2576040517f08c379a0000000000000000000000000000000000000000000000000000000008152600401610db990612627565b60405180910390fd5b600073ffffffffffffffffffffffffffffffffffffffff168173ffffffffffffffffffffffffffffffffffffffff161415610e32576040517f08c379a0000000000000000000000000000000000000000000000000000000008152600401610e2990612487565b60405180910390fd5b610e3b816113d0565b50565b60007f01ffc9a7000000000000000000000000000000000000000000000000000000007bffffffffffffffffffffffffffffffffffffffffffffffffffffffff1916827bffffffffffffffffffffffffffffffffffffffffffffffffffffffff1916149050919050565b60008073ffffffffffffffffffffffffffffffffffffffff166002600084815260200190815260200160002060009054906101000a900473ffffffffffffffffffffffffffffffffffffffff1673ffffffffffffffffffffffffffffffffffffffff1614159050919050565b600033905090565b816004600083815260200190815260200160002060006101000a81548173ffffffffffffffffffffffffffffffffffffffff021916908373ffffffffffffffffffffffffffffffffffffffff160217905550808273ffffffffffffffffffffffffffffffffffffffff16610f8f8361083a565b73ffffffffffffffffffffffffffffffffffffffff167f8c5be1e5ebec7d5bd14f71427d1e84f3dd0314c0f7b2291e5b200ac8c7c3b92560405160405180910390a45050565b6000610fe082610ea8565b61101f576040517f08c379a000000000000000000000000000000000000000000000000000000000815260040161101690612527565b60405180910390fd5b600061102a8361083a565b90508073ffffffffffffffffffffffffffffffffffffffff168473ffffffffffffffffffffffffffffffffffffffff16148061109957508373ffffffffffffffffffffffffffffffffffffffff16611081846104e0565b73ffffffffffffffffffffffffffffffffffffffff16145b806110aa57506110a98185610cb2565b5b91505092915050565b8273ffffffffffffffffffffffffffffffffffffffff166110d38261083a565b73ffffffffffffffffffffffffffffffffffffffff1614611129576040517f08c379a0000000000000000000000000000000000000000000000000000000008152600401611120906124a7565b60405180910390fd5b600073ffffffffffffffffffffffffffffffffffffffff168273ffffffffffffffffffffffffffffffffffffffff161415611199576040517f08c379a0000000000000000000000000000000000000000000000000000000008152600401611190906124e7565b60405180910390fd5b6111a483838361171d565b6111af600082610f1c565b6001600360008573ffffffffffffffffffffffffffffffffffffffff1673ffffffffffffffffffffffffffffffffffffffff16815260200190815260200160002060008282546111ff91906127e2565b925050819055506001600360008473ffffffffffffffffffffffffffffffffffffffff1673ffffffffffffffffffffffffffffffffffffffff1681526020019081526020016000206000828254611256919061275b565b92505081905550816002600083815260200190815260200160002060006101000a81548173ffffffffffffffffffffffffffffffffffffffff021916908373ffffffffffffffffffffffffffffffffffffffff160217905550808273ffffffffffffffffffffffffffffffffffffffff168473ffffffffffffffffffffffffffffffffffffffff167fddf252ad1be2c89b69c2b068fc378daa952ba7f163c4a11628f55a4df523b3ef60405160405180910390a4611315838383611722565b505050565b6001816000016000828254019250508190555050565b600081600001549050919050565b611358828260405180602001604052806000815250611727565b5050565b61136582610ea8565b6113a4576040517f08c379a000000000000000000000000000000000000000000000000000000000815260040161139b906125a7565b60405180910390fd5b806006600084815260200190815260200160002090805190602001906113cb929190611cc3565b505050565b6000600760009054906101000a900473ffffffffffffffffffffffffffffffffffffffff16905081600760006101000a81548173ffffffffffffffffffffffffffffffffffffffff021916908373ffffffffffffffffffffffffffffffffffffffff1602179055508173ffffffffffffffffffffffffffffffffffffffff168173ffffffffffffffffffffffffffffffffffffffff167f8be0079c531659141344cd1fd0a4f28419497f9722a3daafe3b4186f6b6457e060405160405180910390a35050565b8173ffffffffffffffffffffffffffffffffffffffff168373ffffffffffffffffffffffffffffffffffffffff161415611505576040517f08c379a00000000000000000000000000000000000000000000000000000000081526004016114fc90612507565b60405180910390fd5b80600560008573ffffffffffffffffffffffffffffffffffffffff1673ffffffffffffffffffffffffffffffffffffffff16815260200190815260200160002060008473ffffffffffffffffffffffffffffffffffffffff1673ffffffffffffffffffffffffffffffffffffffff16815260200190815260200160002060006101000a81548160ff0219169083151502179055508173ffffffffffffffffffffffffffffffffffffffff168373ffffffffffffffffffffffffffffffffffffffff167f17307eab39ab6107e8899845ad3d59bd9653f200f220920489ca2b5937696c31836040516115f6919061242a565b60405180910390a3505050565b61160e8484846110b3565b61161a84848484611782565b611659576040517f08c379a000000000000000000000000000000000000000000000000000000000815260040161165090612467565b60405180910390fd5b50505050565b606060405180602001604052806000815250905090565b606061168182610ea8565b6116c0576040517f08c379a00000000000000000000000000000000000000000000000000000000081526004016116b790612647565b60405180910390fd5b60006116ca61165f565b905060008151116116ea5760405180602001604052806000815250611715565b806116f484611919565b60405160200161170592919061239f565b6040516020818303038152906040525b915050919050565b505050565b505050565b6117318383611ac6565b61173e6000848484611782565b61177d576040517f08c379a000000000000000000000000000000000000000000000000000000000815260040161177490612467565b60405180910390fd5b505050565b60006117a38473ffffffffffffffffffffffffffffffffffffffff16611ca0565b1561190c578373ffffffffffffffffffffffffffffffffffffffff1663150b7a026117cc610f14565b8786866040518563ffffffff1660e01b81526004016117ee94939291906123de565b602060405180830381600087803b15801561180857600080fd5b505af192505050801561183957506040513d601f19601f820116820180604052508101906118369190612007565b60015b6118bc573d8060008114611869576040519150601f19603f3d011682016040523d82523d6000602084013e61186e565b606091505b506000815114156118b4576040517f08c379a00000000000000000000000000000000000000000000000000000000081526004016118ab90612467565b60405180910390fd5b805181602001fd5b63150b7a0260e01b7bffffffffffffffffffffffffffffffffffffffffffffffffffffffff1916817bffffffffffffffffffffffffffffffffffffffffffffffffffffffff191614915050611911565b600190505b949350505050565b60606000821415611961576040518060400160405280600181526020017f30000000000000000000000000000000000000000000000000000000000000008152509050611ac1565b600082905060005b6000821461199357808061197c9061292f565b915050600a8261198c91906127b1565b9150611969565b60008167ffffffffffffffff8111156119d5577f4e487b7100000000000000000000000000000000000000000000000000000000600052604160045260246000fd5b6040519080825280601f01601f191660200182016040528015611a075781602001600182028036833780820191505090505b5090505b60008514611aba57600182611a2091906127e2565b9150600a85611a2f9190612978565b6030611a3b919061275b565b60f81b818381518110611a77577f4e487b7100000000000000000000000000000000000000000000000000000000600052603260045260246000fd5b60200101907effffffffffffffffffffffffffffffffffffffffffffffffffffffffffffff1916908160001a905350600a85611ab391906127b1565b9450611a0b565b8093505050505b919050565b600073ffffffffffffffffffffffffffffffffffffffff168273ffffffffffffffffffffffffffffffffffffffff161415611b36576040517f08c379a0000000000000000000000000000000000000000000000000000000008152600401611b2d906125c7565b60405180910390fd5b611b3f81610ea8565b15611b7f576040517f08c379a0000000000000000000000000000000000000000000000000000000008152600401611b76906124c7565b60405180910390fd5b611b8b6000838361171d565b6001600360008473ffffffffffffffffffffffffffffffffffffffff1673ffffffffffffffffffffffffffffffffffffffff1681526020019081526020016000206000828254611bdb919061275b565b92505081905550816002600083815260200190815260200160002060006101000a81548173ffffffffffffffffffffffffffffffffffffffff021916908373ffffffffffffffffffffffffffffffffffffffff160217905550808273ffffffffffffffffffffffffffffffffffffffff16600073ffffffffffffffffffffffffffffffffffffffff167fddf252ad1be2c89b69c2b068fc378daa952ba7f163c4a11628f55a4df523b3ef60405160405180910390a4611c9c60008383611722565b5050565b6000808273ffffffffffffffffffffffffffffffffffffffff163b119050919050565b828054611ccf906128cc565b90600052602060002090601f016020900481019282611cf15760008555611d38565b82601f10611d0a57805160ff1916838001178555611d38565b82800160010185558215611d38579182015b82811115611d37578251825591602001919060010190611d1c565b5b509050611d459190611d49565b5090565b5b80821115611d62576000816000905550600101611d4a565b5090565b6000611d79611d74846126e7565b6126c2565b905082815260208101848484011115611d9157600080fd5b611d9c84828561288a565b509392505050565b600081359050611db381612f6c565b92915050565b600081359050611dc881612f83565b92915050565b600081359050611ddd81612f9a565b92915050565b600081519050611df281612f9a565b92915050565b600082601f830112611e0957600080fd5b8135611e19848260208601611d66565b91505092915050565b600081359050611e3181612fb1565b92915050565b600060208284031215611e4957600080fd5b6000611e5784828501611da4565b91505092915050565b60008060408385031215611e7357600080fd5b6000611e8185828601611da4565b9250506020611e9285828601611da4565b9150509250929050565b600080600060608486031215611eb157600080fd5b6000611ebf86828701611da4565b9350506020611ed086828701611da4565b9250506040611ee186828701611e22565b9150509250925092565b60008060008060808587031215611f0157600080fd5b6000611f0f87828801611da4565b9450506020611f2087828801611da4565b9350506040611f3187828801611e22565b925050606085013567ffffffffffffffff811115611f4e57600080fd5b611f5a87828801611df8565b91505092959194509250565b60008060408385031215611f7957600080fd5b6000611f8785828601611da4565b9250506020611f9885828601611db9565b9150509250929050565b60008060408385031215611fb557600080fd5b6000611fc385828601611da4565b9250506020611fd485828601611e22565b9150509250929050565b600060208284031215611ff057600080fd5b6000611ffe84828501611dce565b91505092915050565b60006020828403121561201957600080fd5b600061202784828501611de3565b91505092915050565b60006020828403121561204257600080fd5b600061205084828501611e22565b91505092915050565b61206281612816565b82525050565b61207181612828565b82525050565b600061208282612718565b61208c818561272e565b935061209c818560208601612899565b6120a581612a65565b840191505092915050565b60006120bb82612723565b6120c5818561273f565b93506120d5818560208601612899565b6120de81612a65565b840191505092915050565b60006120f482612723565b6120fe8185612750565b935061210e818560208601612899565b80840191505092915050565b600061212760328361273f565b915061213282612a76565b604082019050919050565b600061214a60268361273f565b915061215582612ac5565b604082019050919050565b600061216d60258361273f565b915061217882612b14565b604082019050919050565b6000612190601c8361273f565b915061219b82612b63565b602082019050919050565b60006121b360248361273f565b91506121be82612b8c565b604082019050919050565b60006121d660198361273f565b91506121e182612bdb565b602082019050919050565b60006121f9602c8361273f565b915061220482612c04565b604082019050919050565b600061221c60388361273f565b915061222782612c53565b604082019050919050565b600061223f602a8361273f565b915061224a82612ca2565b604082019050919050565b600061226260298361273f565b915061226d82612cf1565b604082019050919050565b6000612285602e8361273f565b915061229082612d40565b604082019050919050565b60006122a860208361273f565b91506122b382612d8f565b602082019050919050565b60006122cb60318361273f565b91506122d682612db8565b604082019050919050565b60006122ee602c8361273f565b91506122f982612e07565b604082019050919050565b600061231160208361273f565b915061231c82612e56565b602082019050919050565b6000612334602f8361273f565b915061233f82612e7f565b604082019050919050565b600061235760218361273f565b915061236282612ece565b604082019050919050565b600061237a60318361273f565b915061238582612f1d565b604082019050919050565b61239981612880565b82525050565b60006123ab82856120e9565b91506123b782846120e9565b91508190509392505050565b60006020820190506123d86000830184612059565b92915050565b60006080820190506123f36000830187612059565b6124006020830186612059565b61240d6040830185612390565b818103606083015261241f8184612077565b905095945050505050565b600060208201905061243f6000830184612068565b92915050565b6000602082019050818103600083015261245f81846120b0565b905092915050565b600060208201905081810360008301526124808161211a565b9050919050565b600060208201905081810360008301526124a08161213d565b9050919050565b600060208201905081810360008301526124c081612160565b9050919050565b600060208201905081810360008301526124e081612183565b9050919050565b60006020820190508181036000830152612500816121a6565b9050919050565b60006020820190508181036000830152612520816121c9565b9050919050565b60006020820190508181036000830152612540816121ec565b9050919050565b600060208201905081810360008301526125608161220f565b9050919050565b6000602082019050818103600083015261258081612232565b9050919050565b600060208201905081810360008301526125a081612255565b9050919050565b600060208201905081810360008301526125c081612278565b9050919050565b600060208201905081810360008301526125e08161229b565b9050919050565b60006020820190508181036000830152612600816122be565b9050919050565b60006020820190508181036000830152612620816122e1565b9050919050565b6000602082019050818103600083015261264081612304565b9050919050565b6000602082019050818103600083015261266081612327565b9050919050565b600060208201905081810360008301526126808161234a565b9050919050565b600060208201905081810360008301526126a08161236d565b9050919050565b60006020820190506126bc6000830184612390565b92915050565b60006126cc6126dd565b90506126d882826128fe565b919050565b6000604051905090565b600067ffffffffffffffff82111561270257612701612a36565b5b61270b82612a65565b9050602081019050919050565b600081519050919050565b600081519050919050565b600082825260208201905092915050565b600082825260208201905092915050565b600081905092915050565b600061276682612880565b915061277183612880565b9250827fffffffffffffffffffffffffffffffffffffffffffffffffffffffffffffffff038211156127a6576127a56129a9565b5b828201905092915050565b60006127bc82612880565b91506127c783612880565b9250826127d7576127d66129d8565b5b828204905092915050565b60006127ed82612880565b91506127f883612880565b92508282101561280b5761280a6129a9565b5b828203905092915050565b600061282182612860565b9050919050565b60008115159050919050565b60007fffffffff0000000000000000000000000000000000000000000000000000000082169050919050565b600073ffffffffffffffffffffffffffffffffffffffff82169050919050565b6000819050919050565b82818337600083830152505050565b60005b838110156128b757808201518184015260208101905061289c565b838111156128c6576000848401525b50505050565b600060028204905060018216806128e457607f821691505b602082108114156128f8576128f7612a07565b5b50919050565b61290782612a65565b810181811067ffffffffffffffff8211171561292657612925612a36565b5b80604052505050565b600061293a82612880565b91507fffffffffffffffffffffffffffffffffffffffffffffffffffffffffffffffff82141561296d5761296c6129a9565b5b600182019050919050565b600061298382612880565b915061298e83612880565b92508261299e5761299d6129d8565b5b828206905092915050565b7f4e487b7100000000000000000000000000000000000000000000000000000000600052601160045260246000fd5b7f4e487b7100000000000000000000000000000000000000000000000000000000600052601260045260246000fd5b7f4e487b7100000000000000000000000000000000000000000000000000000000600052602260045260246000fd5b7f4e487b7100000000000000000000000000000000000000000000000000000000600052604160045260246000fd5b6000601f19601f8301169050919050565b7f4552433732313a207472616e7366657220746f206e6f6e20455243373231526560008201527f63656976657220696d706c656d656e7465720000000000000000000000000000602082015250565b7f4f776e61626c653a206e6577206f776e657220697320746865207a65726f206160008201527f6464726573730000000000000000000000000000000000000000000000000000602082015250565b7f4552433732313a207472616e736665722066726f6d20696e636f72726563742060008201527f6f776e6572000000000000000000000000000000000000000000000000000000602082015250565b7f4552433732313a20746f6b656e20616c7265616479206d696e74656400000000600082015250565b7f4552433732313a207472616e7366657220746f20746865207a65726f2061646460008201527f7265737300000000000000000000000000000000000000000000000000000000602082015250565b7f4552433732313a20617070726f766520746f2063616c6c657200000000000000600082015250565b7f4552433732313a206f70657261746f7220717565727920666f72206e6f6e657860008201527f697374656e7420746f6b656e0000000000000000000000000000000000000000602082015250565b7f4552433732313a20617070726f76652063616c6c6572206973206e6f74206f7760008201527f6e6572206e6f7220617070726f76656420666f7220616c6c0000000000000000602082015250565b7f4552433732313a2062616c616e636520717565727920666f7220746865207a6560008201527f726f206164647265737300000000000000000000000000000000000000000000602082015250565b7f4552433732313a206f776e657220717565727920666f72206e6f6e657869737460008201527f656e7420746f6b656e0000000000000000000000000000000000000000000000602082015250565b7f45524337323155524953746f726167653a2055524920736574206f66206e6f6e60008201527f6578697374656e7420746f6b656e000000000000000000000000000000000000602082015250565b7f4552433732313a206d696e7420746f20746865207a65726f2061646472657373600082015250565b7f45524337323155524953746f726167653a2055524920717565727920666f722060008201527f6e6f6e6578697374656e7420746f6b656e000000000000000000000000000000602082015250565b7f4552433732313a20617070726f76656420717565727920666f72206e6f6e657860008201527f697374656e7420746f6b656e0000000000000000000000000000000000000000602082015250565b7f4f776e61626c653a2063616c6c6572206973206e6f7420746865206f776e6572600082015250565b7f4552433732314d657461646174613a2055524920717565727920666f72206e6f60008201527f6e6578697374656e7420746f6b656e0000000000000000000000000000000000602082015250565b7f4552433732313a20617070726f76616c20746f2063757272656e74206f776e6560008201527f7200000000000000000000000000000000000000000000000000000000000000602082015250565b7f4552433732313a207472616e736665722063616c6c6572206973206e6f74206f60008201527f776e6572206e6f7220617070726f766564000000000000000000000000000000602082015250565b612f7581612816565b8114612f8057600080fd5b50565b612f8c81612828565b8114612f9757600080fd5b50565b612fa381612834565b8114612fae57600080fd5b50565b612fba81612880565b8114612fc557600080fd5b5056fea2646970667358221220f09a0b72b1cae9efe80866a4e556347407c5737099860829cdd8c99dc4f9dd4164736f6c63430008040033",
  "linkReferences": {},
  "deployedLinkReferences": {}
}